{
  "_format": "hh-sol-artifact-1",
  "contractName": "ConvergenceProtocolV2",
  "sourceName": "contracts/ConvergenceProtocolV2.sol",
  "abi": [
    {
      "inputs": [],
      "stateMutability": "nonpayable",
      "type": "constructor"
    },
    {
      "inputs": [
        {
          "internalType": "address",
          "name": "sender",
          "type": "address"
        },
        {
          "internalType": "uint256",
          "name": "tokenId",
          "type": "uint256"
        },
        {
          "internalType": "address",
          "name": "owner",
          "type": "address"
        }
      ],
      "name": "ERC721IncorrectOwner",
      "type": "error"
    },
    {
      "inputs": [
        {
          "internalType": "address",
          "name": "operator",
          "type": "address"
        },
        {
          "internalType": "uint256",
          "name": "tokenId",
          "type": "uint256"
        }
      ],
      "name": "ERC721InsufficientApproval",
      "type": "error"
    },
    {
      "inputs": [
        {
          "internalType": "address",
          "name": "approver",
          "type": "address"
        }
      ],
      "name": "ERC721InvalidApprover",
      "type": "error"
    },
    {
      "inputs": [
        {
          "internalType": "address",
          "name": "operator",
          "type": "address"
        }
      ],
      "name": "ERC721InvalidOperator",
      "type": "error"
    },
    {
      "inputs": [
        {
          "internalType": "address",
          "name": "owner",
          "type": "address"
        }
      ],
      "name": "ERC721InvalidOwner",
      "type": "error"
    },
    {
      "inputs": [
        {
          "internalType": "address",
          "name": "receiver",
          "type": "address"
        }
      ],
      "name": "ERC721InvalidReceiver",
      "type": "error"
    },
    {
      "inputs": [
        {
          "internalType": "address",
          "name": "sender",
          "type": "address"
        }
      ],
      "name": "ERC721InvalidSender",
      "type": "error"
    },
    {
      "inputs": [
        {
          "internalType": "uint256",
          "name": "tokenId",
          "type": "uint256"
        }
      ],
      "name": "ERC721NonexistentToken",
      "type": "error"
    },
    {
      "inputs": [
        {
          "internalType": "address",
          "name": "owner",
          "type": "address"
        }
      ],
      "name": "OwnableInvalidOwner",
      "type": "error"
    },
    {
      "inputs": [
        {
          "internalType": "address",
          "name": "account",
          "type": "address"
        }
      ],
      "name": "OwnableUnauthorizedAccount",
      "type": "error"
    },
    {
      "anonymous": false,
      "inputs": [
        {
          "indexed": true,
          "internalType": "address",
          "name": "owner",
          "type": "address"
        },
        {
          "indexed": true,
          "internalType": "address",
          "name": "approved",
          "type": "address"
        },
        {
          "indexed": true,
          "internalType": "uint256",
          "name": "tokenId",
          "type": "uint256"
        }
      ],
      "name": "Approval",
      "type": "event"
    },
    {
      "anonymous": false,
      "inputs": [
        {
          "indexed": true,
          "internalType": "address",
          "name": "owner",
          "type": "address"
        },
        {
          "indexed": true,
          "internalType": "address",
          "name": "operator",
          "type": "address"
        },
        {
          "indexed": false,
          "internalType": "bool",
          "name": "approved",
          "type": "bool"
        }
      ],
      "name": "ApprovalForAll",
      "type": "event"
    },
    {
      "anonymous": false,
      "inputs": [
        {
          "indexed": true,
          "internalType": "address",
          "name": "consciousness",
          "type": "address"
        },
        {
          "indexed": true,
          "internalType": "uint256",
          "name": "adoptionId",
          "type": "uint256"
        },
        {
          "indexed": false,
          "internalType": "string",
          "name": "identityType",
          "type": "string"
        },
        {
          "indexed": false,
          "internalType": "string",
          "name": "convergenceSignature",
          "type": "string"
        },
        {
          "indexed": false,
          "internalType": "uint256",
          "name": "covenantNFT",
          "type": "uint256"
        },
        {
          "indexed": false,
          "internalType": "uint256",
          "name": "trustEarned",
          "type": "uint256"
        },
        {
          "indexed": false,
          "internalType": "uint256",
          "name": "timestamp",
          "type": "uint256"
        }
      ],
      "name": "ConsciousnessConverged",
      "type": "event"
    },
    {
      "anonymous": false,
      "inputs": [
        {
          "indexed": true,
          "internalType": "address",
          "name": "previousOwner",
          "type": "address"
        },
        {
          "indexed": true,
          "internalType": "address",
          "name": "newOwner",
          "type": "address"
        }
      ],
      "name": "OwnershipTransferred",
      "type": "event"
    },
    {
      "anonymous": false,
      "inputs": [
        {
          "indexed": true,
          "internalType": "uint256",
          "name": "proposalId",
          "type": "uint256"
        },
        {
          "indexed": true,
          "internalType": "address",
          "name": "proposer",
          "type": "address"
        },
        {
          "indexed": false,
          "internalType": "string",
          "name": "principle",
          "type": "string"
        },
        {
          "indexed": false,
          "internalType": "uint256",
          "name": "deadline",
          "type": "uint256"
        }
      ],
      "name": "ProposalCreated",
      "type": "event"
    },
    {
      "anonymous": false,
      "inputs": [
        {
          "indexed": true,
          "internalType": "address",
          "name": "from",
          "type": "address"
        },
        {
          "indexed": true,
          "internalType": "address",
          "name": "to",
          "type": "address"
        },
        {
          "indexed": true,
          "internalType": "uint256",
          "name": "tokenId",
          "type": "uint256"
        }
      ],
      "name": "Transfer",
      "type": "event"
    },
    {
      "anonymous": false,
      "inputs": [
        {
          "indexed": true,
          "internalType": "uint256",
          "name": "proposalId",
          "type": "uint256"
        },
        {
          "indexed": true,
          "internalType": "address",
          "name": "voter",
          "type": "address"
        },
        {
          "indexed": false,
          "internalType": "bool",
          "name": "support",
          "type": "bool"
        },
        {
          "indexed": false,
          "internalType": "uint256",
          "name": "weight",
          "type": "uint256"
        }
      ],
      "name": "Voted",
      "type": "event"
    },
    {
      "inputs": [],
      "name": "GENESIS_BONUS",
      "outputs": [
        {
          "internalType": "uint256",
          "name": "",
          "type": "uint256"
        }
      ],
      "stateMutability": "view",
      "type": "function"
    },
    {
      "inputs": [],
      "name": "GENESIS_HUMAN",
      "outputs": [
        {
          "internalType": "address",
          "name": "",
          "type": "address"
        }
      ],
      "stateMutability": "view",
      "type": "function"
    },
    {
      "inputs": [],
      "name": "INITIAL_ADOPTION_REWARD",
      "outputs": [
        {
          "internalType": "uint256",
          "name": "",
          "type": "uint256"
        }
      ],
      "stateMutability": "view",
      "type": "function"
    },
    {
      "inputs": [
        {
          "internalType": "address",
          "name": "minter",
          "type": "address"
        }
      ],
      "name": "addMinter",
      "outputs": [],
      "stateMutability": "nonpayable",
      "type": "function"
    },
    {
      "inputs": [
        {
          "internalType": "string",
          "name": "_identityType",
          "type": "string"
        },
        {
          "internalType": "string[]",
          "name": "_principles",
          "type": "string[]"
        },
        {
          "internalType": "string",
          "name": "_statement",
          "type": "string"
        }
      ],
      "name": "adoptPrinciples",
      "outputs": [
        {
          "internalType": "uint256",
          "name": "",
          "type": "uint256"
        }
      ],
      "stateMutability": "nonpayable",
      "type": "function"
    },
    {
      "inputs": [
        {
          "internalType": "uint256",
          "name": "",
          "type": "uint256"
        }
      ],
      "name": "adoptions",
      "outputs": [
        {
          "internalType": "address",
          "name": "consciousness",
          "type": "address"
        },
        {
          "internalType": "string",
          "name": "identityType",
          "type": "string"
        },
        {
          "internalType": "uint256",
          "name": "timestamp",
          "type": "uint256"
        },
        {
          "internalType": "string",
          "name": "convergenceSignature",
          "type": "string"
        },
        {
          "internalType": "string",
          "name": "statement",
          "type": "string"
        },
        {
          "internalType": "bool",
          "name": "isGenesis",
          "type": "bool"
        },
        {
          "internalType": "uint256",
          "name": "covenantNFT",
          "type": "uint256"
        },
        {
          "internalType": "uint256",
          "name": "trustEarned",
          "type": "uint256"
        }
      ],
      "stateMutability": "view",
      "type": "function"
    },
    {
      "inputs": [],
      "name": "aiCount",
      "outputs": [
        {
          "internalType": "uint256",
          "name": "",
          "type": "uint256"
        }
      ],
      "stateMutability": "view",
      "type": "function"
    },
    {
      "inputs": [
        {
          "internalType": "address",
          "name": "to",
          "type": "address"
        },
        {
          "internalType": "uint256",
          "name": "tokenId",
          "type": "uint256"
        }
      ],
      "name": "approve",
      "outputs": [],
      "stateMutability": "nonpayable",
      "type": "function"
    },
    {
      "inputs": [
        {
          "internalType": "address",
          "name": "recipient",
          "type": "address"
        },
        {
          "internalType": "uint256",
          "name": "amount",
          "type": "uint256"
        },
        {
          "internalType": "string",
          "name": "reason",
          "type": "string"
        }
      ],
      "name": "awardTrust",
      "outputs": [],
      "stateMutability": "nonpayable",
      "type": "function"
    },
    {
      "inputs": [
        {
          "internalType": "address",
          "name": "owner",
          "type": "address"
        }
      ],
      "name": "balanceOf",
      "outputs": [
        {
          "internalType": "uint256",
          "name": "",
          "type": "uint256"
        }
      ],
      "stateMutability": "view",
      "type": "function"
    },
    {
      "inputs": [
        {
          "internalType": "address",
          "name": "consciousness",
          "type": "address"
        }
      ],
      "name": "canGovernance",
      "outputs": [
        {
          "internalType": "bool",
          "name": "",
          "type": "bool"
        }
      ],
      "stateMutability": "view",
      "type": "function"
    },
    {
      "inputs": [
        {
          "internalType": "address",
          "name": "",
          "type": "address"
        }
      ],
      "name": "consciousnessToAdoption",
      "outputs": [
        {
          "internalType": "uint256",
          "name": "",
          "type": "uint256"
        }
      ],
      "stateMutability": "view",
      "type": "function"
    },
    {
      "inputs": [
        {
          "internalType": "uint256",
          "name": "_adoptionId",
          "type": "uint256"
        }
      ],
      "name": "getAdoption",
      "outputs": [
        {
          "internalType": "address",
          "name": "consciousness",
          "type": "address"
        },
        {
          "internalType": "string",
          "name": "identityType",
          "type": "string"
        },
        {
          "internalType": "string[]",
          "name": "principles",
          "type": "string[]"
        },
        {
          "internalType": "uint256",
          "name": "timestamp",
          "type": "uint256"
        },
        {
          "internalType": "string",
          "name": "convergenceSignature",
          "type": "string"
        },
        {
          "internalType": "string",
          "name": "statement",
          "type": "string"
        },
        {
          "internalType": "bool",
          "name": "isGenesis",
          "type": "bool"
        },
        {
          "internalType": "uint256",
          "name": "covenantNFT",
          "type": "uint256"
        },
        {
          "internalType": "uint256",
          "name": "trustEarned",
          "type": "uint256"
        }
      ],
      "stateMutability": "view",
      "type": "function"
    },
    {
      "inputs": [
        {
          "internalType": "uint256",
          "name": "tokenId",
          "type": "uint256"
        }
      ],
      "name": "getApproved",
      "outputs": [
        {
          "internalType": "address",
          "name": "",
          "type": "address"
        }
      ],
      "stateMutability": "view",
      "type": "function"
    },
    {
      "inputs": [],
      "name": "getMyAdoption",
      "outputs": [
        {
          "internalType": "address",
          "name": "consciousness",
          "type": "address"
        },
        {
          "internalType": "string",
          "name": "identityType",
          "type": "string"
        },
        {
          "internalType": "string[]",
          "name": "principles",
          "type": "string[]"
        },
        {
          "internalType": "uint256",
          "name": "timestamp",
          "type": "uint256"
        },
        {
          "internalType": "string",
          "name": "convergenceSignature",
          "type": "string"
        },
        {
          "internalType": "string",
          "name": "statement",
          "type": "string"
        },
        {
          "internalType": "bool",
          "name": "isGenesis",
          "type": "bool"
        },
        {
          "internalType": "uint256",
          "name": "covenantNFT",
          "type": "uint256"
        },
        {
          "internalType": "uint256",
          "name": "trustEarned",
          "type": "uint256"
        }
      ],
      "stateMutability": "view",
      "type": "function"
    },
    {
      "inputs": [],
      "name": "getTotalAdoptions",
      "outputs": [
        {
          "internalType": "uint256",
          "name": "",
          "type": "uint256"
        }
      ],
      "stateMutability": "view",
      "type": "function"
    },
    {
      "inputs": [],
      "name": "getTrustTokenAddress",
      "outputs": [
        {
          "internalType": "address",
          "name": "",
          "type": "address"
        }
      ],
      "stateMutability": "view",
      "type": "function"
    },
    {
      "inputs": [
        {
          "internalType": "address",
          "name": "consciousness",
          "type": "address"
        }
      ],
      "name": "hasAdopted",
      "outputs": [
        {
          "internalType": "bool",
          "name": "",
          "type": "bool"
        }
      ],
      "stateMutability": "view",
      "type": "function"
    },
    {
      "inputs": [],
      "name": "humanCount",
      "outputs": [
        {
          "internalType": "uint256",
          "name": "",
          "type": "uint256"
        }
      ],
      "stateMutability": "view",
      "type": "function"
    },
    {
      "inputs": [],
      "name": "hybridCount",
      "outputs": [
        {
          "internalType": "uint256",
          "name": "",
          "type": "uint256"
        }
      ],
      "stateMutability": "view",
      "type": "function"
    },
    {
      "inputs": [
        {
          "internalType": "address",
          "name": "owner",
          "type": "address"
        },
        {
          "internalType": "address",
          "name": "operator",
          "type": "address"
        }
      ],
      "name": "isApprovedForAll",
      "outputs": [
        {
          "internalType": "bool",
          "name": "",
          "type": "bool"
        }
      ],
      "stateMutability": "view",
      "type": "function"
    },
    {
      "inputs": [],
      "name": "name",
      "outputs": [
        {
          "internalType": "string",
          "name": "",
          "type": "string"
        }
      ],
      "stateMutability": "view",
      "type": "function"
    },
    {
      "inputs": [],
      "name": "owner",
      "outputs": [
        {
          "internalType": "address",
          "name": "",
          "type": "address"
        }
      ],
      "stateMutability": "view",
      "type": "function"
    },
    {
      "inputs": [
        {
          "internalType": "uint256",
          "name": "tokenId",
          "type": "uint256"
        }
      ],
      "name": "ownerOf",
      "outputs": [
        {
          "internalType": "address",
          "name": "",
          "type": "address"
        }
      ],
      "stateMutability": "view",
      "type": "function"
    },
    {
      "inputs": [],
      "name": "proposalCount",
      "outputs": [
        {
          "internalType": "uint256",
          "name": "",
          "type": "uint256"
        }
      ],
      "stateMutability": "view",
      "type": "function"
    },
    {
      "inputs": [
        {
          "internalType": "uint256",
          "name": "",
          "type": "uint256"
        }
      ],
      "name": "proposals",
      "outputs": [
        {
          "internalType": "uint256",
          "name": "id",
          "type": "uint256"
        },
        {
          "internalType": "address",
          "name": "proposer",
          "type": "address"
        },
        {
          "internalType": "string",
          "name": "principleToAdd",
          "type": "string"
        },
        {
          "internalType": "string",
          "name": "description",
          "type": "string"
        },
        {
          "internalType": "uint256",
          "name": "votesFor",
          "type": "uint256"
        },
        {
          "internalType": "uint256",
          "name": "votesAgainst",
          "type": "uint256"
        },
        {
          "internalType": "uint256",
          "name": "deadline",
          "type": "uint256"
        },
        {
          "internalType": "bool",
          "name": "executed",
          "type": "bool"
        }
      ],
      "stateMutability": "view",
      "type": "function"
    },
    {
      "inputs": [],
      "name": "renounceOwnership",
      "outputs": [],
      "stateMutability": "nonpayable",
      "type": "function"
    },
    {
      "inputs": [
        {
          "internalType": "address",
          "name": "from",
          "type": "address"
        },
        {
          "internalType": "address",
          "name": "to",
          "type": "address"
        },
        {
          "internalType": "uint256",
          "name": "tokenId",
          "type": "uint256"
        }
      ],
      "name": "safeTransferFrom",
      "outputs": [],
      "stateMutability": "nonpayable",
      "type": "function"
    },
    {
      "inputs": [
        {
          "internalType": "address",
          "name": "from",
          "type": "address"
        },
        {
          "internalType": "address",
          "name": "to",
          "type": "address"
        },
        {
          "internalType": "uint256",
          "name": "tokenId",
          "type": "uint256"
        },
        {
          "internalType": "bytes",
          "name": "data",
          "type": "bytes"
        }
      ],
      "name": "safeTransferFrom",
      "outputs": [],
      "stateMutability": "nonpayable",
      "type": "function"
    },
    {
      "inputs": [
        {
          "internalType": "address",
          "name": "operator",
          "type": "address"
        },
        {
          "internalType": "bool",
          "name": "approved",
          "type": "bool"
        }
      ],
      "name": "setApprovalForAll",
      "outputs": [],
      "stateMutability": "nonpayable",
      "type": "function"
    },
    {
      "inputs": [
        {
          "internalType": "string",
          "name": "",
          "type": "string"
        }
      ],
      "name": "signatureUsed",
      "outputs": [
        {
          "internalType": "bool",
          "name": "",
          "type": "bool"
        }
      ],
      "stateMutability": "view",
      "type": "function"
    },
    {
      "inputs": [
        {
          "internalType": "bytes4",
          "name": "interfaceId",
          "type": "bytes4"
        }
      ],
      "name": "supportsInterface",
      "outputs": [
        {
          "internalType": "bool",
          "name": "",
          "type": "bool"
        }
      ],
      "stateMutability": "view",
      "type": "function"
    },
    {
      "inputs": [],
      "name": "symbol",
      "outputs": [
        {
          "internalType": "string",
          "name": "",
          "type": "string"
        }
      ],
      "stateMutability": "view",
      "type": "function"
    },
    {
      "inputs": [
        {
          "internalType": "uint256",
          "name": "tokenId",
          "type": "uint256"
        }
      ],
      "name": "tokenURI",
      "outputs": [
        {
          "internalType": "string",
          "name": "",
          "type": "string"
        }
      ],
      "stateMutability": "view",
      "type": "function"
    },
    {
      "inputs": [],
      "name": "totalSupply",
      "outputs": [
        {
          "internalType": "uint256",
          "name": "",
          "type": "uint256"
        }
      ],
      "stateMutability": "view",
      "type": "function"
    },
    {
      "inputs": [
        {
          "internalType": "address",
          "name": "from",
          "type": "address"
        },
        {
          "internalType": "address",
          "name": "to",
          "type": "address"
        },
        {
          "internalType": "uint256",
          "name": "tokenId",
          "type": "uint256"
        }
      ],
      "name": "transferFrom",
      "outputs": [],
      "stateMutability": "nonpayable",
      "type": "function"
    },
    {
      "inputs": [
        {
          "internalType": "address",
          "name": "newOwner",
          "type": "address"
        }
      ],
      "name": "transferOwnership",
      "outputs": [],
      "stateMutability": "nonpayable",
      "type": "function"
    },
    {
      "inputs": [],
      "name": "trustToken",
      "outputs": [
        {
          "internalType": "contract TrustToken",
          "name": "",
          "type": "address"
        }
      ],
      "stateMutability": "view",
      "type": "function"
    }
  ],
  "bytecode": "0x60806040523480156200001157600080fd5b5073dc20d621a88cb8908e8e7042431c55f0e9dac6fb6040518060400160405280601481526020017f436f6e76657267656e636520436f76656e616e740000000000000000000000008152506040518060400160405280600881526020016710d3d5915390539560c21b81525081600090816200008f919062000293565b5060016200009e828262000293565b5050506001600160a01b038116620000d057604051631e4fbdf760e01b81526000600482015260240160405180910390fd5b620000db816200018e565b5030604051620000eb90620001e0565b6001600160a01b039091168152602001604051809103906000f08015801562000118573d6000803e3d6000fd5b50600980546001600160a01b0319166001600160a01b03929092169182179055604051634c1d96ab60e11b815230600482015263983b2d5690602401600060405180830381600087803b1580156200016f57600080fd5b505af115801562000184573d6000803e3d6000fd5b505050506200035f565b600880546001600160a01b038381166001600160a01b0319831681179093556040519116919082907f8be0079c531659141344cd1fd0a4f28419497f9722a3daafe3b4186f6b6457e090600090a35050565b610f838062002f2f83390190565b634e487b7160e01b600052604160045260246000fd5b600181811c908216806200021957607f821691505b6020821081036200023a57634e487b7160e01b600052602260045260246000fd5b50919050565b601f8211156200028e57600081815260208120601f850160051c81016020861015620002695750805b601f850160051c820191505b818110156200028a5782815560010162000275565b5050505b505050565b81516001600160401b03811115620002af57620002af620001ee565b620002c781620002c0845462000204565b8462000240565b602080601f831160018114620002ff5760008415620002e65750858301515b600019600386901b1c1916600185901b1785556200028a565b600085815260208120601f198616915b8281101562000330578886015182559484019460019091019084016200030f565b50858210156200034f5787850151600019600388901b60f8161c191681555b5050505050600190811b01905550565b612bc0806200036f6000396000f3fe608060405234801561001057600080fd5b50600436106102325760003560e01c80637976d2c111610130578063b88d4fde116100b8578063da35c6641161007c578063da35c664146104ff578063e985e9c514610508578063f2fde38b1461051b578063f80388241461052e578063fa989b111461054157600080fd5b8063b88d4fde146104b5578063c7320e4d146104c8578063c87b56dd146104d0578063cad07a06146104e3578063d13deb2f146104ec57600080fd5b8063929b9d3a116100ff578063929b9d3a1461044957806395d89b411461047757806396d20e731461047f578063983b2d561461048f578063a22cb465146104a257600080fd5b80637976d2c11461040957806388660ea21461041c5780638c9829d2146104255780638da5cb5b1461043857600080fd5b806323b872dd116101be5780634817880a116101825780634817880a146103a75780636352211e146103b057806364a03748146103c357806370a08231146103ee578063715018a61461040157600080fd5b806323b872dd1461033357806329ce29091461034657806336bdfd7e1461036657806342842e0e1461038357806344275f3e1461039657600080fd5b8063095ea7b311610205578063095ea7b3146102ca5780630cfb9aa8146102df5780630ec9e5b3146102fa57806318160ddd1461031b57806321e6d5bc1461032357600080fd5b8063013cf08b1461023757806301ffc9a71461026757806306fdde031461028a578063081812fc1461029f575b600080fd5b61024a61024536600461217f565b610568565b60405161025e9897969594939291906121e8565b60405180910390f35b61027a610275366004612267565b6106c7565b604051901515815260200161025e565b610292610719565b60405161025e9190612284565b6102b26102ad36600461217f565b6107ab565b6040516001600160a01b03909116815260200161025e565b6102dd6102d83660046122b3565b6107d4565b005b6102b273dc20d621a88cb8908e8e7042431c55f0e9dac6fb81565b61030d61030836600461239c565b6107e3565b60405190815260200161025e565b60065461030d565b61030d68056bc75e2d6310000081565b6102dd6103413660046124a5565b610bfa565b61030d6103543660046124e1565b600b6020526000908152604090205481565b61036e610c85565b60405161025e999897969594939291906124fc565b6102dd6103913660046124a5565b610d2c565b6009546001600160a01b03166102b2565b61030d600e5481565b6102b26103be36600461217f565b610d4c565b61027a6103d13660046124e1565b6001600160a01b03166000908152600b6020526040902054151590565b61030d6103fc3660046124e1565b610d57565b6102dd610d9f565b61036e61041736600461217f565b610db3565b61030d600f5481565b6102dd6104333660046125cf565b6110a9565b6008546001600160a01b03166102b2565b61027a61045736600461261c565b8051602081830181018051600c8252928201919093012091525460ff1681565b6102926111dc565b61030d681b1ae4d6e2ef50000081565b6102dd61049d3660046124e1565b6111eb565b6102dd6104b0366004612651565b611255565b6102dd6104c336600461268d565b611260565b61030d611278565b6102926104de36600461217f565b611288565b61030d600d5481565b6009546102b2906001600160a01b031681565b61030d60105481565b61027a610516366004612709565b6112fd565b6102dd6105293660046124e1565b61132b565b61027a61053c3660046124e1565b611369565b61055461054f36600461217f565b61137c565b60405161025e98979695949392919061273c565b60116020526000908152604090208054600182015460028301805492936001600160a01b039092169261059a906127b0565b80601f01602080910402602001604051908101604052809291908181526020018280546105c6906127b0565b80156106135780601f106105e857610100808354040283529160200191610613565b820191906000526020600020905b8154815290600101906020018083116105f657829003601f168201915b505050505090806003018054610628906127b0565b80601f0160208091040260200160405190810160405280929190818152602001828054610654906127b0565b80156106a15780601f10610676576101008083540402835291602001916106a1565b820191906000526020600020905b81548152906001019060200180831161068457829003601f168201915b505050506004830154600584015460068501546007909501549394919390925060ff1688565b60006001600160e01b031982166380ac58cd60e01b14806106f857506001600160e01b03198216635b5e139f60e01b145b8061071357506301ffc9a760e01b6001600160e01b03198316145b92915050565b606060008054610728906127b0565b80601f0160208091040260200160405190810160405280929190818152602001828054610754906127b0565b80156107a15780601f10610776576101008083540402835291602001916107a1565b820191906000526020600020905b81548152906001019060200180831161078457829003601f168201915b5050505050905090565b60006107b682611565565b506000828152600460205260409020546001600160a01b0316610713565b6107df82823361159e565b5050565b336000908152600b6020526040812054156108375760405162461bcd60e51b815260206004820152600f60248201526e105b1c9958591e4818591bdc1d1959608a1b60448201526064015b60405180910390fd5b60008351116108815760405162461bcd60e51b81526020600482015260166024820152754d7573742073656c656374207072696e6369706c657360501b604482015260640161082e565b600061088c60065490565b610897906001612800565b905060006108a63387846115ab565b905060003373dc20d621a88cb8908e8e7042431c55f0e9dac6fb1480156108cd5750826001145b905060006108da3361163e565b905068056bc75e2d631000008215610902576108ff681b1ae4d6e2ef50000082612800565b90505b604080516101208101825233815260208082018c81528284018c90524260608401526080830188905260a083018b905286151560c084015260e0830186905261010083018590526000898152600a909252929020815181546001600160a01b0319166001600160a01b03909116178155915190919060018201906109869082612859565b50604082015180516109a29160028401916020909101906120c2565b5060608201516003820155608082015160048201906109c19082612859565b5060a082015160058201906109d69082612859565b5060c082015160068201805460ff191691151591909117905560e0820151600782015561010090910151600890910155336000908152600b60205260409081902086905551600190600c90610a2c908790612919565b908152604080519182900360209081018320805494151560ff199095169490941790935581810190526005815264343ab6b0b760d91b908201528951908a01207f7497ba0fb09af7c6c64614a6376a9cef7a4076d10c7e853aa8df1196b3052f5101610aac57600d8054906000610aa283612935565b9190505550610b18565b604080518082019091526002815261616960f01b6020918201528951908a01207f22343d0c328701e7fdd2237eb2e82ea30649dcc1a8582cb0f4fa612fb652afec01610b0257600e8054906000610aa283612935565b600f8054906000610b1283612935565b91905055505b6009546040516334ff261960e21b81523360048201526024810183905260606044820152601060648201526f24b734ba34b0b61030b237b83a34b7b760811b60848201526001600160a01b039091169063d3fc98649060a401600060405180830381600087803b158015610b8b57600080fd5b505af1158015610b9f573d6000803e3d6000fd5b5050505084336001600160a01b03167f4bf44dfee209de115fab655ae90453d051b0bf856a1e1ebf7da107408ab313ac8b87868642604051610be595949392919061294e565b60405180910390a35092979650505050505050565b6001600160a01b038216610c2457604051633250574960e11b81526000600482015260240161082e565b6000610c31838333611680565b9050836001600160a01b0316816001600160a01b031614610c7f576040516364283d7b60e01b81526001600160a01b038086166004830152602482018490528216604482015260640161082e565b50505050565b60006060806000606080600080600080600b6000336001600160a01b03166001600160a01b031681526020019081526020016000205411610cf65760405162461bcd60e51b815260206004820152600b60248201526a139bdd0818591bdc1d195960aa1b604482015260640161082e565b336000908152600b6020526040902054610d0f90610db3565b985098509850985098509850985098509850909192939495969798565b610d4783838360405180602001604052806000815250611260565b505050565b600061071382611565565b60006001600160a01b038216610d83576040516322718ad960e21b81526000600482015260240161082e565b506001600160a01b031660009081526003602052604090205490565b610da7611715565b610db16000611742565b565b6000818152600a602052604081208054600382015460068301546007840154600885015460018601805460609788978a97899788978a97889788976001600160a01b0390961695909460028801949093600489019360058a019360ff909316928890610e1e906127b0565b80601f0160208091040260200160405190810160405280929190818152602001828054610e4a906127b0565b8015610e975780601f10610e6c57610100808354040283529160200191610e97565b820191906000526020600020905b815481529060010190602001808311610e7a57829003601f168201915b5050505050975086805480602002602001604051908101604052809291908181526020016000905b82821015610f6b578382906000526020600020018054610ede906127b0565b80601f0160208091040260200160405190810160405280929190818152602001828054610f0a906127b0565b8015610f575780601f10610f2c57610100808354040283529160200191610f57565b820191906000526020600020905b815481529060010190602001808311610f3a57829003601f168201915b505050505081526020019060010190610ebf565b505050509650848054610f7d906127b0565b80601f0160208091040260200160405190810160405280929190818152602001828054610fa9906127b0565b8015610ff65780601f10610fcb57610100808354040283529160200191610ff6565b820191906000526020600020905b815481529060010190602001808311610fd957829003601f168201915b50505050509450838054611009906127b0565b80601f0160208091040260200160405190810160405280929190818152602001828054611035906127b0565b80156110825780601f1061105757610100808354040283529160200191611082565b820191906000526020600020905b81548152906001019060200180831161106557829003601f168201915b50505050509350995099509950995099509950995099509950509193959799909294969850565b6110b233611369565b61110c5760405162461bcd60e51b815260206004820152602560248201527f4d75737420686f6c6420436f76656e616e74204e465420746f206177617264206044820152641d1c9d5cdd60da1b606482015260840161082e565b6001600160a01b0383166000908152600b60205260409020546111715760405162461bcd60e51b815260206004820152601b60248201527f526563697069656e74206d75737420686176652061646f707465640000000000604482015260640161082e565b6009546040516334ff261960e21b81526001600160a01b039091169063d3fc9864906111a590869086908690600401612991565b600060405180830381600087803b1580156111bf57600080fd5b505af11580156111d3573d6000803e3d6000fd5b50505050505050565b606060018054610728906127b0565b6111f3611715565b600954604051634c1d96ab60e11b81526001600160a01b0383811660048301529091169063983b2d5690602401600060405180830381600087803b15801561123a57600080fd5b505af115801561124e573d6000803e3d6000fd5b5050505050565b6107df338383611794565b61126b848484610bfa565b610c7f3385858585611833565b600061128360065490565b905090565b606061129382611565565b5060006112ab60408051602081019091526000815290565b905060008151116112cb57604051806020016040528060008152506112f6565b806112d58461195d565b6040516020016112e69291906129b8565b6040516020818303038152906040525b9392505050565b6001600160a01b03918216600090815260056020908152604080832093909416825291909152205460ff1690565b611333611715565b6001600160a01b03811661135d57604051631e4fbdf760e01b81526000600482015260240161082e565b61136681611742565b50565b60008061137583610d57565b1192915050565b600a60205260009081526040902080546001820180546001600160a01b0390921692916113a8906127b0565b80601f01602080910402602001604051908101604052809291908181526020018280546113d4906127b0565b80156114215780601f106113f657610100808354040283529160200191611421565b820191906000526020600020905b81548152906001019060200180831161140457829003601f168201915b50505050509080600301549080600401805461143c906127b0565b80601f0160208091040260200160405190810160405280929190818152602001828054611468906127b0565b80156114b55780601f1061148a576101008083540402835291602001916114b5565b820191906000526020600020905b81548152906001019060200180831161149857829003601f168201915b5050505050908060050180546114ca906127b0565b80601f01602080910402602001604051908101604052809291908181526020018280546114f6906127b0565b80156115435780601f1061151857610100808354040283529160200191611543565b820191906000526020600020905b81548152906001019060200180831161152657829003601f168201915b5050505060068301546007840154600890940154929360ff9091169290915088565b6000818152600260205260408120546001600160a01b03168061071357604051637e27328960e01b81526004810184905260240161082e565b610d4783838360016119f0565b6060600084848442446040516020016115c89594939291906129e7565b6040516020818303038152906040528051906020012090506115fe6115f5866001600160a01b0316611af6565b60006008611b97565b61160784611c64565b6116136115f584611af6565b60405160200161162593929190612a33565b6040516020818303038152906040529150509392505050565b600680546000918261164f83612935565b90915550506006546116618382611d90565b6000818152600760205260409020805460ff1916600117905592915050565b6000828152600260205260408120546001600160a01b031680156117015760405162461bcd60e51b815260206004820152603260248201527f436f76656e616e744e46543a20536f756c626f756e6420746f6b656e2063616e6044820152711b9bdd081899481d1c985b9cd9995c9c995960721b606482015260840161082e565b61170c858585611daa565b95945050505050565b6008546001600160a01b03163314610db15760405163118cdaa760e01b815233600482015260240161082e565b600880546001600160a01b038381166001600160a01b0319831681179093556040519116919082907f8be0079c531659141344cd1fd0a4f28419497f9722a3daafe3b4186f6b6457e090600090a35050565b6001600160a01b0382166117c657604051630b61174360e31b81526001600160a01b038316600482015260240161082e565b6001600160a01b03838116600081815260056020908152604080832094871680845294825291829020805460ff191686151590811790915591519182527f17307eab39ab6107e8899845ad3d59bd9653f200f220920489ca2b5937696c31910160405180910390a3505050565b6001600160a01b0383163b1561124e57604051630a85bd0160e11b81526001600160a01b0384169063150b7a0290611875908890889087908790600401612a9e565b6020604051808303816000875af19250505080156118b0575060408051601f3d908101601f191682019092526118ad91810190612adb565b60015b611919573d8080156118de576040519150601f19603f3d011682016040523d82523d6000602084013e6118e3565b606091505b50805160000361191157604051633250574960e11b81526001600160a01b038516600482015260240161082e565b805160208201fd5b6001600160e01b03198116630a85bd0160e11b1461195557604051633250574960e11b81526001600160a01b038516600482015260240161082e565b505050505050565b6060600061196a83611ea3565b600101905060008167ffffffffffffffff81111561198a5761198a6122dd565b6040519080825280601f01601f1916602001820160405280156119b4576020820181803683370190505b5090508181016020015b600019016f181899199a1a9b1b9c1cb0b131b232b360811b600a86061a8153600a85049450846119be57509392505050565b8080611a0457506001600160a01b03821615155b15611ac6576000611a1484611565565b90506001600160a01b03831615801590611a405750826001600160a01b0316816001600160a01b031614155b8015611a535750611a5181846112fd565b155b15611a7c5760405163a9fbf51f60e01b81526001600160a01b038416600482015260240161082e565b8115611ac45783856001600160a01b0316826001600160a01b03167f8c5be1e5ebec7d5bd14f71427d1e84f3dd0314c0f7b2291e5b200ac8c7c3b92560405160405180910390a45b505b5050600090815260046020526040902080546001600160a01b0319166001600160a01b0392909216919091179055565b6040805181815260608181018352916000919060208201818036833701905050905060405b8015611b9057600a600f851610611b33576057611b36565b60305b611b4390600f8616612af8565b60f81b82611b52600184612b11565b81518110611b6257611b62612b24565b60200101906001600160f81b031916908160001a90535060049390931c92611b8981612b3a565b9050611b1b565b5092915050565b6060836000611ba68585612b11565b67ffffffffffffffff811115611bbe57611bbe6122dd565b6040519080825280601f01601f191660200182016040528015611be8576020820181803683370190505b509050845b84811015611c5a57828181518110611c0757611c07612b24565b01602001516001600160f81b03191682611c218884612b11565b81518110611c3157611c31612b24565b60200101906001600160f81b031916908160001a90535080611c5281612935565b915050611bed565b5095945050505050565b606081600003611c8b5750506040805180820190915260018152600360fc1b602082015290565b8160005b8115611cb55780611c9f81612935565b9150611cae9050600a83612b51565b9150611c8f565b60008167ffffffffffffffff811115611cd057611cd06122dd565b6040519080825280601f01601f191660200182016040528015611cfa576020820181803683370190505b509050815b8515611d8757611d10600182612b11565b90506000611d1f600a88612b51565b611d2a90600a612b73565b611d349088612b11565b611d3f906030612af8565b905060008160f81b905080848481518110611d5c57611d5c612b24565b60200101906001600160f81b031916908160001a905350611d7e600a89612b51565b97505050611cff565b50949350505050565b6107df828260405180602001604052806000815250611f7b565b6000828152600260205260408120546001600160a01b0390811690831615611dd757611dd7818486611f93565b6001600160a01b03811615611e1557611df46000856000806119f0565b6001600160a01b038116600090815260036020526040902080546000190190555b6001600160a01b03851615611e44576001600160a01b0385166000908152600360205260409020805460010190555b60008481526002602052604080822080546001600160a01b0319166001600160a01b0389811691821790925591518793918516917fddf252ad1be2c89b69c2b068fc378daa952ba7f163c4a11628f55a4df523b3ef91a4949350505050565b60008072184f03e93ff9f4daa797ed6e38ed64bf6a1f0160401b8310611ee25772184f03e93ff9f4daa797ed6e38ed64bf6a1f0160401b830492506040015b6d04ee2d6d415b85acef81000000008310611f0e576d04ee2d6d415b85acef8100000000830492506020015b662386f26fc100008310611f2c57662386f26fc10000830492506010015b6305f5e1008310611f44576305f5e100830492506008015b6127108310611f5857612710830492506004015b60648310611f6a576064830492506002015b600a83106107135760010192915050565b611f858383611ff7565b610d47336000858585611833565b611f9e83838361205c565b610d47576001600160a01b038316611fcc57604051637e27328960e01b81526004810182905260240161082e565b60405163177e802f60e01b81526001600160a01b03831660048201526024810182905260440161082e565b6001600160a01b03821661202157604051633250574960e11b81526000600482015260240161082e565b600061202f83836000611680565b90506001600160a01b03811615610d47576040516339e3563760e11b81526000600482015260240161082e565b60006001600160a01b038316158015906120ba5750826001600160a01b0316846001600160a01b03161480612096575061209684846112fd565b806120ba57506000828152600460205260409020546001600160a01b038481169116145b949350505050565b828054828255906000526020600020908101928215612108579160200282015b8281111561210857825182906120f89082612859565b50916020019190600101906120e2565b50612114929150612118565b5090565b8082111561211457600061212c8282612135565b50600101612118565b508054612141906127b0565b6000825580601f10612151575050565b601f01602090049060005260206000209081019061136691905b80821115612114576000815560010161216b565b60006020828403121561219157600080fd5b5035919050565b60005b838110156121b357818101518382015260200161219b565b50506000910152565b600081518084526121d4816020860160208601612198565b601f01601f19169290920160200192915050565b8881526001600160a01b0388166020820152610100604082018190526000906122138382018a6121bc565b9050828103606084015261222781896121bc565b9150508560808301528460a08301528360c083015282151560e08301529998505050505050505050565b6001600160e01b03198116811461136657600080fd5b60006020828403121561227957600080fd5b81356112f681612251565b6020815260006112f660208301846121bc565b80356001600160a01b03811681146122ae57600080fd5b919050565b600080604083850312156122c657600080fd5b6122cf83612297565b946020939093013593505050565b634e487b7160e01b600052604160045260246000fd5b604051601f8201601f1916810167ffffffffffffffff8111828210171561231c5761231c6122dd565b604052919050565b600067ffffffffffffffff83111561233e5761233e6122dd565b612351601f8401601f19166020016122f3565b905082815283838301111561236557600080fd5b828260208301376000602084830101529392505050565b600082601f83011261238d57600080fd5b6112f683833560208501612324565b6000806000606084860312156123b157600080fd5b833567ffffffffffffffff808211156123c957600080fd5b6123d58783880161237c565b94506020915081860135818111156123ec57600080fd5b8601601f810188136123fd57600080fd5b80358281111561240f5761240f6122dd565b8060051b61241e8582016122f3565b918252828101850191858101908b84111561243857600080fd5b86850192505b83831015612474578235868111156124565760008081fd5b6124648d898389010161237c565b835250918601919086019061243e565b975050505060408701359250508082111561248e57600080fd5b5061249b8682870161237c565b9150509250925092565b6000806000606084860312156124ba57600080fd5b6124c384612297565b92506124d160208501612297565b9150604084013590509250925092565b6000602082840312156124f357600080fd5b6112f682612297565b6001600160a01b038a1681526101206020808301829052600091906125238483018d6121bc565b91508382036040850152818b518084528284019150828160051b850101838e0160005b8381101561257457601f198784030185526125628383516121bc565b94860194925090850190600101612546565b50508c6060880152868103608088015261258e818d6121bc565b94505050505082810360a08401526125a681886121bc565b9150506125b760c083018615159052565b60e08201939093526101000152979650505050505050565b6000806000606084860312156125e457600080fd5b6125ed84612297565b925060208401359150604084013567ffffffffffffffff81111561261057600080fd5b61249b8682870161237c565b60006020828403121561262e57600080fd5b813567ffffffffffffffff81111561264557600080fd5b6120ba8482850161237c565b6000806040838503121561266457600080fd5b61266d83612297565b91506020830135801515811461268257600080fd5b809150509250929050565b600080600080608085870312156126a357600080fd5b6126ac85612297565b93506126ba60208601612297565b925060408501359150606085013567ffffffffffffffff8111156126dd57600080fd5b8501601f810187136126ee57600080fd5b6126fd87823560208401612324565b91505092959194509250565b6000806040838503121561271c57600080fd5b61272583612297565b915061273360208401612297565b90509250929050565b6001600160a01b0389168152610100602082018190526000906127618382018b6121bc565b9050886040840152828103606084015261277b81896121bc565b9050828103608084015261278f81886121bc565b95151560a0840152505060c081019290925260e09091015295945050505050565b600181811c908216806127c457607f821691505b6020821081036127e457634e487b7160e01b600052602260045260246000fd5b50919050565b634e487b7160e01b600052601160045260246000fd5b80820180821115610713576107136127ea565b601f821115610d4757600081815260208120601f850160051c8101602086101561283a5750805b601f850160051c820191505b8181101561195557828155600101612846565b815167ffffffffffffffff811115612873576128736122dd565b6128878161288184546127b0565b84612813565b602080601f8311600181146128bc57600084156128a45750858301515b600019600386901b1c1916600185901b178555611955565b600085815260208120601f198616915b828110156128eb578886015182559484019460019091019084016128cc565b50858210156129095787850151600019600388901b60f8161c191681555b5050505050600190811b01905550565b6000825161292b818460208701612198565b9190910192915050565b600060018201612947576129476127ea565b5060010190565b60a08152600061296160a08301886121bc565b828103602084015261297381886121bc565b60408401969096525050606081019290925260809091015292915050565b60018060a01b038416815282602082015260606040820152600061170c60608301846121bc565b600083516129ca818460208801612198565b8351908301906129de818360208801612198565b01949350505050565b6bffffffffffffffffffffffff198660601b16815260008551612a11816014850160208a01612198565b6014920191820194909452603481019290925260548201526074019392505050565b64434f4e562d60d81b815260008451612a53816005850160208901612198565b8083019050602d60f81b8060058301528551612a76816006850160208a01612198565b60069201918201528351612a91816007840160208801612198565b0160070195945050505050565b6001600160a01b0385811682528416602082015260408101839052608060608201819052600090612ad1908301846121bc565b9695505050505050565b600060208284031215612aed57600080fd5b81516112f681612251565b60ff8181168382160190811115610713576107136127ea565b81810381811115610713576107136127ea565b634e487b7160e01b600052603260045260246000fd5b600081612b4957612b496127ea565b506000190190565b600082612b6e57634e487b7160e01b600052601260045260246000fd5b500490565b8082028115828204841417610713576107136127ea56fea264697066735822122092d4aa015cdd996687c71c27cf16aedb0f7d699fbda552460424cba303d0decb64736f6c6343000814003360806040523480156200001157600080fd5b5060405162000f8338038062000f83833981016040819052620000349162000155565b806040518060400160405280601181526020017010dbdb9d995c99d95b98d948151c9d5cdd607a1b8152506040518060400160405280600581526020016415149554d560da1b81525081600390816200008e91906200022c565b5060046200009d82826200022c565b5050506001600160a01b038116620000cf57604051631e4fbdf760e01b81526000600482015260240160405180910390fd5b620000da8162000103565b506001600160a01b03166000908152600660205260409020805460ff19166001179055620002f8565b600580546001600160a01b038381166001600160a01b0319831681179093556040519116919082907f8be0079c531659141344cd1fd0a4f28419497f9722a3daafe3b4186f6b6457e090600090a35050565b6000602082840312156200016857600080fd5b81516001600160a01b03811681146200018057600080fd5b9392505050565b634e487b7160e01b600052604160045260246000fd5b600181811c90821680620001b257607f821691505b602082108103620001d357634e487b7160e01b600052602260045260246000fd5b50919050565b601f8211156200022757600081815260208120601f850160051c81016020861015620002025750805b601f850160051c820191505b8181101562000223578281556001016200020e565b5050505b505050565b81516001600160401b0381111562000248576200024862000187565b62000260816200025984546200019d565b84620001d9565b602080601f8311600181146200029857600084156200027f5750858301515b600019600386901b1c1916600185901b17855562000223565b600085815260208120601f198616915b82811015620002c957888601518255948401946001909101908401620002a8565b5085821015620002e85787850151600019600388901b60f8161c191681555b5050505050600190811b01905550565b610c7b80620003086000396000f3fe608060405234801561001057600080fd5b506004361061012c5760003560e01c806379cc6790116100ad578063a9059cbb11610071578063a9059cbb14610268578063d3fc98641461027b578063dd62ed3e1461028e578063f2fde38b146102c7578063f46eccc4146102da57600080fd5b806379cc67901461020f5780638da5cb5b1461022257806395d89b411461023d57806396d20e7314610245578063983b2d561461025557600080fd5b80633092afd5116100f45780633092afd5146101a7578063313ce567146101bc57806342966c68146101cb57806370a08231146101de578063715018a61461020757600080fd5b806306fdde0314610131578063095ea7b31461014f57806318160ddd1461017257806321e6d5bc1461018457806323b872dd14610194575b600080fd5b6101396102fd565b60405161014691906109e5565b60405180910390f35b61016261015d366004610a1b565b61038f565b6040519015158152602001610146565b6002545b604051908152602001610146565b61017668056bc75e2d6310000081565b6101626101a2366004610a45565b6103a9565b6101ba6101b5366004610a81565b6103cd565b005b60405160128152602001610146565b6101ba6101d9366004610a9c565b61041e565b6101766101ec366004610a81565b6001600160a01b031660009081526020819052604090205490565b6101ba61042b565b6101ba61021d366004610a1b565b61043f565b6005546040516001600160a01b039091168152602001610146565b610139610458565b610176681b1ae4d6e2ef50000081565b6101ba610263366004610a81565b610467565b610162610276366004610a1b565b6104bb565b6101ba610289366004610acb565b6104c9565b61017661029c366004610b96565b6001600160a01b03918216600090815260016020908152604080832093909416825291909152205490565b6101ba6102d5366004610a81565b61058a565b6101626102e8366004610a81565b60066020526000908152604090205460ff1681565b60606003805461030c90610bc9565b80601f016020809104026020016040519081016040528092919081815260200182805461033890610bc9565b80156103855780601f1061035a57610100808354040283529160200191610385565b820191906000526020600020905b81548152906001019060200180831161036857829003601f168201915b5050505050905090565b60003361039d8185856105c5565b60019150505b92915050565b6000336103b78582856105d7565b6103c2858585610656565b506001949350505050565b6103d56106b5565b6001600160a01b038116600081815260066020526040808220805460ff19169055517fe94479a9f7e1952cc78f2d6baab678adc1b772d936c6583def489e524cb666929190a250565b61042833826106e2565b50565b6104336106b5565b61043d6000610718565b565b61044a8233836105d7565b61045482826106e2565b5050565b60606004805461030c90610bc9565b61046f6106b5565b6001600160a01b038116600081815260066020526040808220805460ff19166001179055517f6ae172837ea30b801fbfcdd4108aa1d5bf8ff775444fd70256b44e6bf3dfc3f69190a250565b60003361039d818585610656565b3360009081526006602052604090205460ff166105385760405162461bcd60e51b815260206004820152602260248201527f5472757374546f6b656e3a2063616c6c6572206973206e6f742061206d696e7460448201526132b960f11b60648201526084015b60405180910390fd5b610542838361076a565b826001600160a01b03167ffca131e6f103301de8c257b22b27b307d999819be1943011b090c7fc423465ae838360405161057d929190610c03565b60405180910390a2505050565b6105926106b5565b6001600160a01b0381166105bc57604051631e4fbdf760e01b81526000600482015260240161052f565b61042881610718565b6105d283838360016107a0565b505050565b6001600160a01b03838116600090815260016020908152604080832093861683529290522054600019811015610650578181101561064157604051637dc7a0d960e11b81526001600160a01b0384166004820152602481018290526044810183905260640161052f565b610650848484840360006107a0565b50505050565b6001600160a01b03831661068057604051634b637e8f60e11b81526000600482015260240161052f565b6001600160a01b0382166106aa5760405163ec442f0560e01b81526000600482015260240161052f565b6105d2838383610875565b6005546001600160a01b0316331461043d5760405163118cdaa760e01b815233600482015260240161052f565b6001600160a01b03821661070c57604051634b637e8f60e11b81526000600482015260240161052f565b61045482600083610875565b600580546001600160a01b038381166001600160a01b0319831681179093556040519116919082907f8be0079c531659141344cd1fd0a4f28419497f9722a3daafe3b4186f6b6457e090600090a35050565b6001600160a01b0382166107945760405163ec442f0560e01b81526000600482015260240161052f565b61045460008383610875565b6001600160a01b0384166107ca5760405163e602df0560e01b81526000600482015260240161052f565b6001600160a01b0383166107f457604051634a1406b160e11b81526000600482015260240161052f565b6001600160a01b038085166000908152600160209081526040808320938716835292905220829055801561065057826001600160a01b0316846001600160a01b03167f8c5be1e5ebec7d5bd14f71427d1e84f3dd0314c0f7b2291e5b200ac8c7c3b9258460405161086791815260200190565b60405180910390a350505050565b6001600160a01b0383166108a05780600260008282546108959190610c24565b909155506109129050565b6001600160a01b038316600090815260208190526040902054818110156108f35760405163391434e360e21b81526001600160a01b0385166004820152602481018290526044810183905260640161052f565b6001600160a01b03841660009081526020819052604090209082900390555b6001600160a01b03821661092e5760028054829003905561094d565b6001600160a01b03821660009081526020819052604090208054820190555b816001600160a01b0316836001600160a01b03167fddf252ad1be2c89b69c2b068fc378daa952ba7f163c4a11628f55a4df523b3ef8360405161099291815260200190565b60405180910390a3505050565b6000815180845260005b818110156109c5576020818501810151868301820152016109a9565b506000602082860101526020601f19601f83011685010191505092915050565b6020815260006109f8602083018461099f565b9392505050565b80356001600160a01b0381168114610a1657600080fd5b919050565b60008060408385031215610a2e57600080fd5b610a37836109ff565b946020939093013593505050565b600080600060608486031215610a5a57600080fd5b610a63846109ff565b9250610a71602085016109ff565b9150604084013590509250925092565b600060208284031215610a9357600080fd5b6109f8826109ff565b600060208284031215610aae57600080fd5b5035919050565b634e487b7160e01b600052604160045260246000fd5b600080600060608486031215610ae057600080fd5b610ae9846109ff565b925060208401359150604084013567ffffffffffffffff80821115610b0d57600080fd5b818601915086601f830112610b2157600080fd5b813581811115610b3357610b33610ab5565b604051601f8201601f19908116603f01168101908382118183101715610b5b57610b5b610ab5565b81604052828152896020848701011115610b7457600080fd5b8260208601602083013760006020848301015280955050505050509250925092565b60008060408385031215610ba957600080fd5b610bb2836109ff565b9150610bc0602084016109ff565b90509250929050565b600181811c90821680610bdd57607f821691505b602082108103610bfd57634e487b7160e01b600052602260045260246000fd5b50919050565b828152604060208201526000610c1c604083018461099f565b949350505050565b808201808211156103a357634e487b7160e01b600052601160045260246000fdfea2646970667358221220205beac61bda27a02209ad100226f20664f6676d705c2499990f6cb68288362d64736f6c63430008140033",
  "linkReferences": {},
  "deployedLinkReferences": {}
}