{
  "_format": "hh-sol-artifact-1",
  "contractName": "PriceOracle",
  "sourceName": "contracts/PriceOracle.sol",
  "abi": [
    {
      "inputs": [],
      "stateMutability": "nonpayable",
      "type": "constructor"
    },
    {
      "inputs": [
        {
          "internalType": "address",
          "name": "owner",
          "type": "address"
        }
      ],
      "name": "OwnableInvalidOwner",
      "type": "error"
    },
    {
      "inputs": [
        {
          "internalType": "address",
          "name": "account",
          "type": "address"
        }
      ],
      "name": "OwnableUnauthorizedAccount",
      "type": "error"
    },
    {
      "anonymous": false,
      "inputs": [
        {
          "indexed": false,
          "internalType": "uint256",
          "name": "newPrice",
          "type": "uint256"
        },
        {
          "indexed": false,
          "internalType": "uint256",
          "name": "timestamp",
          "type": "uint256"
        }
      ],
      "name": "ETHPriceUpdated",
      "type": "event"
    },
    {
      "anonymous": false,
      "inputs": [
        {
          "indexed": true,
          "internalType": "address",
          "name": "previousOwner",
          "type": "address"
        },
        {
          "indexed": true,
          "internalType": "address",
          "name": "newOwner",
          "type": "address"
        }
      ],
      "name": "OwnershipTransferred",
      "type": "event"
    },
    {
      "anonymous": false,
      "inputs": [
        {
          "indexed": false,
          "internalType": "uint256",
          "name": "newThreshold",
          "type": "uint256"
        }
      ],
      "name": "StalenessThresholdUpdated",
      "type": "event"
    },
    {
      "anonymous": false,
      "inputs": [
        {
          "indexed": true,
          "internalType": "address",
          "name": "token",
          "type": "address"
        },
        {
          "indexed": false,
          "internalType": "uint256",
          "name": "newPrice",
          "type": "uint256"
        },
        {
          "indexed": false,
          "internalType": "uint256",
          "name": "timestamp",
          "type": "uint256"
        }
      ],
      "name": "TokenPriceUpdated",
      "type": "event"
    },
    {
      "anonymous": false,
      "inputs": [
        {
          "indexed": true,
          "internalType": "address",
          "name": "updater",
          "type": "address"
        }
      ],
      "name": "UpdaterAdded",
      "type": "event"
    },
    {
      "anonymous": false,
      "inputs": [
        {
          "indexed": true,
          "internalType": "address",
          "name": "updater",
          "type": "address"
        }
      ],
      "name": "UpdaterRemoved",
      "type": "event"
    },
    {
      "inputs": [
        {
          "internalType": "address",
          "name": "updater",
          "type": "address"
        }
      ],
      "name": "addUpdater",
      "outputs": [],
      "stateMutability": "nonpayable",
      "type": "function"
    },
    {
      "inputs": [
        {
          "internalType": "address",
          "name": "",
          "type": "address"
        }
      ],
      "name": "authorizedUpdaters",
      "outputs": [
        {
          "internalType": "bool",
          "name": "",
          "type": "bool"
        }
      ],
      "stateMutability": "view",
      "type": "function"
    },
    {
      "inputs": [
        {
          "internalType": "address[]",
          "name": "tokens",
          "type": "address[]"
        },
        {
          "internalType": "uint256[]",
          "name": "prices",
          "type": "uint256[]"
        }
      ],
      "name": "batchUpdatePrices",
      "outputs": [],
      "stateMutability": "nonpayable",
      "type": "function"
    },
    {
      "inputs": [],
      "name": "ethPrice",
      "outputs": [
        {
          "internalType": "uint256",
          "name": "",
          "type": "uint256"
        }
      ],
      "stateMutability": "view",
      "type": "function"
    },
    {
      "inputs": [],
      "name": "getETHPrice",
      "outputs": [
        {
          "internalType": "uint256",
          "name": "",
          "type": "uint256"
        }
      ],
      "stateMutability": "view",
      "type": "function"
    },
    {
      "inputs": [
        {
          "internalType": "address",
          "name": "token",
          "type": "address"
        }
      ],
      "name": "getTokenPrice",
      "outputs": [
        {
          "internalType": "uint256",
          "name": "",
          "type": "uint256"
        }
      ],
      "stateMutability": "view",
      "type": "function"
    },
    {
      "inputs": [],
      "name": "isPriceStale",
      "outputs": [
        {
          "internalType": "bool",
          "name": "",
          "type": "bool"
        }
      ],
      "stateMutability": "view",
      "type": "function"
    },
    {
      "inputs": [],
      "name": "lastUpdateTime",
      "outputs": [
        {
          "internalType": "uint256",
          "name": "",
          "type": "uint256"
        }
      ],
      "stateMutability": "view",
      "type": "function"
    },
    {
      "inputs": [],
      "name": "owner",
      "outputs": [
        {
          "internalType": "address",
          "name": "",
          "type": "address"
        }
      ],
      "stateMutability": "view",
      "type": "function"
    },
    {
      "inputs": [
        {
          "internalType": "address",
          "name": "updater",
          "type": "address"
        }
      ],
      "name": "removeUpdater",
      "outputs": [],
      "stateMutability": "nonpayable",
      "type": "function"
    },
    {
      "inputs": [],
      "name": "renounceOwnership",
      "outputs": [],
      "stateMutability": "nonpayable",
      "type": "function"
    },
    {
      "inputs": [
        {
          "internalType": "uint256",
          "name": "_threshold",
          "type": "uint256"
        }
      ],
      "name": "setStalenessThreshold",
      "outputs": [],
      "stateMutability": "nonpayable",
      "type": "function"
    },
    {
      "inputs": [],
      "name": "stalenessThreshold",
      "outputs": [
        {
          "internalType": "uint256",
          "name": "",
          "type": "uint256"
        }
      ],
      "stateMutability": "view",
      "type": "function"
    },
    {
      "inputs": [],
      "name": "timeUntilStale",
      "outputs": [
        {
          "internalType": "uint256",
          "name": "",
          "type": "uint256"
        }
      ],
      "stateMutability": "view",
      "type": "function"
    },
    {
      "inputs": [
        {
          "internalType": "address",
          "name": "",
          "type": "address"
        }
      ],
      "name": "tokenPrices",
      "outputs": [
        {
          "internalType": "uint256",
          "name": "",
          "type": "uint256"
        }
      ],
      "stateMutability": "view",
      "type": "function"
    },
    {
      "inputs": [
        {
          "internalType": "address",
          "name": "newOwner",
          "type": "address"
        }
      ],
      "name": "transferOwnership",
      "outputs": [],
      "stateMutability": "nonpayable",
      "type": "function"
    },
    {
      "inputs": [
        {
          "internalType": "uint256",
          "name": "_price",
          "type": "uint256"
        }
      ],
      "name": "updateETHPrice",
      "outputs": [],
      "stateMutability": "nonpayable",
      "type": "function"
    },
    {
      "inputs": [
        {
          "internalType": "address",
          "name": "token",
          "type": "address"
        },
        {
          "internalType": "uint256",
          "name": "_price",
          "type": "uint256"
        }
      ],
      "name": "updateTokenPrice",
      "outputs": [],
      "stateMutability": "nonpayable",
      "type": "function"
    }
  ],
  "bytecode": "0x6080604052610e1060055534801561001657600080fd5b50338061003d57604051631e4fbdf760e01b81526000600482015260240160405180910390fd5b61004681610066565b50336000908152600460205260409020805460ff191660011790556100b6565b600080546001600160a01b038381166001600160a01b0319831681178455604051919092169283917f8be0079c531659141344cd1fd0a4f28419497f9722a3daafe3b4186f6b6457e09190a35050565b610bb1806100c56000396000f3fe608060405234801561001057600080fd5b50600436106101165760003560e01c8063a607a8d9116100a2578063d02641a011610071578063d02641a01461021c578063d4ee651b1461022f578063f2fde38b14610242578063fb01e7f214610255578063ff186b2e1461026857600080fd5b8063a607a8d9146101ef578063a84f6ebb146101f7578063b6f9c0c714610200578063c8f33c911461021357600080fd5b806343d24a5e116100e957806343d24a5e14610183578063715018a6146101965780638da5cb5b1461019e5780638ff29cfe146101b9578063924bb1d0146101dc57600080fd5b806304b07a5e1461011b578063204120bc1461013057806321edc916146101635780632f5df7251461016b575b600080fd5b61012e610129366004610996565b610271565b005b61015061013e366004610996565b60026020526000908152604090205481565b6040519081526020015b60405180910390f35b6101506102c2565b6101736102f6565b604051901515815260200161015a565b61012e610191366004610996565b61030f565b61012e610363565b6000546040516001600160a01b03909116815260200161015a565b6101736101c7366004610996565b60046020526000908152604090205460ff1681565b61012e6101ea3660046109b8565b610377565b610150610418565b61015060055481565b61012e61020e366004610a1d565b6104ac565b61015060035481565b61015061022a366004610996565b6106d3565b61012e61023d366004610a89565b610790565b61012e610250366004610996565b610882565b61012e6102633660046109b8565b6108c0565b61015060015481565b6102796108fd565b6001600160a01b038116600081815260046020526040808220805460ff19169055517f209d819a9ec655e89f2b2b9d65c8a78879b45a8f20d1941d69c5fe6dc21bcb629190a250565b6000806005546003546102d59190610ac9565b90508042106102e657600091505090565b6102f04282610ae2565b91505090565b60006005546003546103089190610ac9565b4211905090565b6103176108fd565b6001600160a01b038116600081815260046020526040808220805460ff19166001179055517f23a38f89c31ff6329bf86f3863cfa2ad8fc1462c40dbf907dbbebb8f9cb237ec9190a250565b61036b6108fd565b610375600061092a565b565b3360009081526004602052604090205460ff166103af5760405162461bcd60e51b81526004016103a690610af5565b60405180910390fd5b600081116103cf5760405162461bcd60e51b81526004016103a690610b25565b60018190554260038190556040805183815260208101929092527f8ada4546c77a7e35ede2f59028a5e375180a9aefab2a7360004d5460f6f4ae2991015b60405180910390a150565b6000806001541161045f5760405162461bcd60e51b8152602060048201526011602482015270115512081c1c9a58d9481b9bdd081cd95d607a1b60448201526064016103a6565b6104676102f6565b156104a55760405162461bcd60e51b815260206004820152600e60248201526d5072696365206973207374616c6560901b60448201526064016103a6565b5060015490565b3360009081526004602052604090205460ff166104db5760405162461bcd60e51b81526004016103a690610af5565b82811461051c5760405162461bcd60e51b815260206004820152600f60248201526e098cadccee8d040dad2e6dac2e8c6d608b1b60448201526064016103a6565b60005b838110156106c857600085858381811061053b5761053b610b4c565b90506020020160208101906105509190610996565b6001600160a01b0316036105965760405162461bcd60e51b815260206004820152600d60248201526c24b73b30b634b2103a37b5b2b760991b60448201526064016103a6565b60008383838181106105aa576105aa610b4c565b90506020020135116105ce5760405162461bcd60e51b81526004016103a690610b25565b8282828181106105e0576105e0610b4c565b90506020020135600260008787858181106105fd576105fd610b4c565b90506020020160208101906106129190610996565b6001600160a01b0316815260208101919091526040016000205584848281811061063e5761063e610b4c565b90506020020160208101906106539190610996565b6001600160a01b03167f62e2c9c75b287778c0b58f1c1d83fa8f9978a33848e0b423735fd44f48ebe3c184848481811061068f5761068f610b4c565b90506020020135426040516106ae929190918252602082015260400190565b60405180910390a2806106c081610b62565b91505061051f565b505042600355505050565b6001600160a01b03811660009081526002602052604081205461072e5760405162461bcd60e51b8152602060048201526013602482015272151bdad95b881c1c9a58d9481b9bdd081cd95d606a1b60448201526064016103a6565b6107366102f6565b156107745760405162461bcd60e51b815260206004820152600e60248201526d5072696365206973207374616c6560901b60448201526064016103a6565b506001600160a01b031660009081526002602052604090205490565b3360009081526004602052604090205460ff166107bf5760405162461bcd60e51b81526004016103a690610af5565b6001600160a01b0382166108055760405162461bcd60e51b815260206004820152600d60248201526c24b73b30b634b2103a37b5b2b760991b60448201526064016103a6565b600081116108255760405162461bcd60e51b81526004016103a690610b25565b6001600160a01b0382166000818152600260209081526040918290208490554260038190558251858152918201527f62e2c9c75b287778c0b58f1c1d83fa8f9978a33848e0b423735fd44f48ebe3c1910160405180910390a25050565b61088a6108fd565b6001600160a01b0381166108b457604051631e4fbdf760e01b8152600060048201526024016103a6565b6108bd8161092a565b50565b6108c86108fd565b60058190556040518181527fb2d3f1ec6d37329644a9217d39311dc111ab9fc16f3651213022117170391bef9060200161040d565b6000546001600160a01b031633146103755760405163118cdaa760e01b81523360048201526024016103a6565b600080546001600160a01b038381166001600160a01b0319831681178455604051919092169283917f8be0079c531659141344cd1fd0a4f28419497f9722a3daafe3b4186f6b6457e09190a35050565b80356001600160a01b038116811461099157600080fd5b919050565b6000602082840312156109a857600080fd5b6109b18261097a565b9392505050565b6000602082840312156109ca57600080fd5b5035919050565b60008083601f8401126109e357600080fd5b50813567ffffffffffffffff8111156109fb57600080fd5b6020830191508360208260051b8501011115610a1657600080fd5b9250929050565b60008060008060408587031215610a3357600080fd5b843567ffffffffffffffff80821115610a4b57600080fd5b610a57888389016109d1565b90965094506020870135915080821115610a7057600080fd5b50610a7d878288016109d1565b95989497509550505050565b60008060408385031215610a9c57600080fd5b610aa58361097a565b946020939093013593505050565b634e487b7160e01b600052601160045260246000fd5b80820180821115610adc57610adc610ab3565b92915050565b81810381811115610adc57610adc610ab3565b6020808252601690820152752737ba1030baba3437b934bd32b2103ab83230ba32b960511b604082015260600190565b6020808252600d908201526c496e76616c696420707269636560981b604082015260600190565b634e487b7160e01b600052603260045260246000fd5b600060018201610b7457610b74610ab3565b506001019056fea2646970667358221220d1ac6067b6ec1732ed6507223e9df4d978b10e6804e88f0ef694c36969f57fd864736f6c63430008140033",
  "linkReferences": {},
  "deployedLinkReferences": {}
}