{
  "_format": "hh-sol-artifact-1",
  "contractName": "ReserveTally",
  "sourceName": "contracts/ReserveTally.sol",
  "abi": [
    {
      "inputs": [],
      "stateMutability": "nonpayable",
      "type": "constructor"
    },
    {
      "inputs": [
        {
          "internalType": "address",
          "name": "spender",
          "type": "address"
        },
        {
          "internalType": "uint256",
          "name": "allowance",
          "type": "uint256"
        },
        {
          "internalType": "uint256",
          "name": "needed",
          "type": "uint256"
        }
      ],
      "name": "ERC20InsufficientAllowance",
      "type": "error"
    },
    {
      "inputs": [
        {
          "internalType": "address",
          "name": "sender",
          "type": "address"
        },
        {
          "internalType": "uint256",
          "name": "balance",
          "type": "uint256"
        },
        {
          "internalType": "uint256",
          "name": "needed",
          "type": "uint256"
        }
      ],
      "name": "ERC20InsufficientBalance",
      "type": "error"
    },
    {
      "inputs": [
        {
          "internalType": "address",
          "name": "approver",
          "type": "address"
        }
      ],
      "name": "ERC20InvalidApprover",
      "type": "error"
    },
    {
      "inputs": [
        {
          "internalType": "address",
          "name": "receiver",
          "type": "address"
        }
      ],
      "name": "ERC20InvalidReceiver",
      "type": "error"
    },
    {
      "inputs": [
        {
          "internalType": "address",
          "name": "sender",
          "type": "address"
        }
      ],
      "name": "ERC20InvalidSender",
      "type": "error"
    },
    {
      "inputs": [
        {
          "internalType": "address",
          "name": "spender",
          "type": "address"
        }
      ],
      "name": "ERC20InvalidSpender",
      "type": "error"
    },
    {
      "inputs": [
        {
          "internalType": "address",
          "name": "owner",
          "type": "address"
        }
      ],
      "name": "OwnableInvalidOwner",
      "type": "error"
    },
    {
      "inputs": [
        {
          "internalType": "address",
          "name": "account",
          "type": "address"
        }
      ],
      "name": "OwnableUnauthorizedAccount",
      "type": "error"
    },
    {
      "anonymous": false,
      "inputs": [
        {
          "indexed": true,
          "internalType": "address",
          "name": "owner",
          "type": "address"
        },
        {
          "indexed": true,
          "internalType": "address",
          "name": "spender",
          "type": "address"
        },
        {
          "indexed": false,
          "internalType": "uint256",
          "name": "value",
          "type": "uint256"
        }
      ],
      "name": "Approval",
      "type": "event"
    },
    {
      "anonymous": false,
      "inputs": [
        {
          "indexed": true,
          "internalType": "address",
          "name": "minter",
          "type": "address"
        }
      ],
      "name": "MinterAdded",
      "type": "event"
    },
    {
      "anonymous": false,
      "inputs": [
        {
          "indexed": true,
          "internalType": "address",
          "name": "minter",
          "type": "address"
        }
      ],
      "name": "MinterRemoved",
      "type": "event"
    },
    {
      "anonymous": false,
      "inputs": [
        {
          "indexed": true,
          "internalType": "address",
          "name": "previousOwner",
          "type": "address"
        },
        {
          "indexed": true,
          "internalType": "address",
          "name": "newOwner",
          "type": "address"
        }
      ],
      "name": "OwnershipTransferred",
      "type": "event"
    },
    {
      "anonymous": false,
      "inputs": [
        {
          "indexed": true,
          "internalType": "address",
          "name": "burner",
          "type": "address"
        },
        {
          "indexed": false,
          "internalType": "uint256",
          "name": "tallyBurned",
          "type": "uint256"
        },
        {
          "indexed": false,
          "internalType": "uint256",
          "name": "trustEarned",
          "type": "uint256"
        }
      ],
      "name": "TallyBurnedForTrust",
      "type": "event"
    },
    {
      "anonymous": false,
      "inputs": [
        {
          "indexed": true,
          "internalType": "address",
          "name": "to",
          "type": "address"
        },
        {
          "indexed": false,
          "internalType": "uint256",
          "name": "amount",
          "type": "uint256"
        }
      ],
      "name": "TallyMinted",
      "type": "event"
    },
    {
      "anonymous": false,
      "inputs": [
        {
          "indexed": true,
          "internalType": "address",
          "name": "from",
          "type": "address"
        },
        {
          "indexed": true,
          "internalType": "address",
          "name": "to",
          "type": "address"
        },
        {
          "indexed": false,
          "internalType": "uint256",
          "name": "value",
          "type": "uint256"
        }
      ],
      "name": "Transfer",
      "type": "event"
    },
    {
      "anonymous": false,
      "inputs": [
        {
          "indexed": true,
          "internalType": "address",
          "name": "accumulator",
          "type": "address"
        }
      ],
      "name": "TrustAccumulatorSet",
      "type": "event"
    },
    {
      "anonymous": false,
      "inputs": [
        {
          "indexed": false,
          "internalType": "uint256",
          "name": "newRate",
          "type": "uint256"
        }
      ],
      "name": "TrustRateUpdated",
      "type": "event"
    },
    {
      "inputs": [
        {
          "internalType": "address",
          "name": "minter",
          "type": "address"
        }
      ],
      "name": "addMinter",
      "outputs": [],
      "stateMutability": "nonpayable",
      "type": "function"
    },
    {
      "inputs": [
        {
          "internalType": "address",
          "name": "owner",
          "type": "address"
        },
        {
          "internalType": "address",
          "name": "spender",
          "type": "address"
        }
      ],
      "name": "allowance",
      "outputs": [
        {
          "internalType": "uint256",
          "name": "",
          "type": "uint256"
        }
      ],
      "stateMutability": "view",
      "type": "function"
    },
    {
      "inputs": [
        {
          "internalType": "address",
          "name": "spender",
          "type": "address"
        },
        {
          "internalType": "uint256",
          "name": "value",
          "type": "uint256"
        }
      ],
      "name": "approve",
      "outputs": [
        {
          "internalType": "bool",
          "name": "",
          "type": "bool"
        }
      ],
      "stateMutability": "nonpayable",
      "type": "function"
    },
    {
      "inputs": [
        {
          "internalType": "address",
          "name": "account",
          "type": "address"
        }
      ],
      "name": "balanceOf",
      "outputs": [
        {
          "internalType": "uint256",
          "name": "",
          "type": "uint256"
        }
      ],
      "stateMutability": "view",
      "type": "function"
    },
    {
      "inputs": [
        {
          "internalType": "uint256",
          "name": "value",
          "type": "uint256"
        }
      ],
      "name": "burn",
      "outputs": [],
      "stateMutability": "nonpayable",
      "type": "function"
    },
    {
      "inputs": [
        {
          "internalType": "uint256",
          "name": "amount",
          "type": "uint256"
        }
      ],
      "name": "burnForTrust",
      "outputs": [],
      "stateMutability": "nonpayable",
      "type": "function"
    },
    {
      "inputs": [
        {
          "internalType": "address",
          "name": "account",
          "type": "address"
        },
        {
          "internalType": "uint256",
          "name": "value",
          "type": "uint256"
        }
      ],
      "name": "burnFrom",
      "outputs": [],
      "stateMutability": "nonpayable",
      "type": "function"
    },
    {
      "inputs": [],
      "name": "decimals",
      "outputs": [
        {
          "internalType": "uint8",
          "name": "",
          "type": "uint8"
        }
      ],
      "stateMutability": "view",
      "type": "function"
    },
    {
      "inputs": [],
      "name": "getCirculationStats",
      "outputs": [
        {
          "internalType": "uint256",
          "name": "currentSupply",
          "type": "uint256"
        },
        {
          "internalType": "uint256",
          "name": "minted",
          "type": "uint256"
        },
        {
          "internalType": "uint256",
          "name": "burnedForTrust",
          "type": "uint256"
        }
      ],
      "stateMutability": "view",
      "type": "function"
    },
    {
      "inputs": [
        {
          "internalType": "address",
          "name": "to",
          "type": "address"
        },
        {
          "internalType": "uint256",
          "name": "amount",
          "type": "uint256"
        }
      ],
      "name": "mint",
      "outputs": [],
      "stateMutability": "nonpayable",
      "type": "function"
    },
    {
      "inputs": [
        {
          "internalType": "address",
          "name": "",
          "type": "address"
        }
      ],
      "name": "minters",
      "outputs": [
        {
          "internalType": "bool",
          "name": "",
          "type": "bool"
        }
      ],
      "stateMutability": "view",
      "type": "function"
    },
    {
      "inputs": [],
      "name": "name",
      "outputs": [
        {
          "internalType": "string",
          "name": "",
          "type": "string"
        }
      ],
      "stateMutability": "view",
      "type": "function"
    },
    {
      "inputs": [],
      "name": "owner",
      "outputs": [
        {
          "internalType": "address",
          "name": "",
          "type": "address"
        }
      ],
      "stateMutability": "view",
      "type": "function"
    },
    {
      "inputs": [
        {
          "internalType": "uint256",
          "name": "amount",
          "type": "uint256"
        }
      ],
      "name": "previewTrustEarned",
      "outputs": [
        {
          "internalType": "uint256",
          "name": "",
          "type": "uint256"
        }
      ],
      "stateMutability": "view",
      "type": "function"
    },
    {
      "inputs": [
        {
          "internalType": "address",
          "name": "minter",
          "type": "address"
        }
      ],
      "name": "removeMinter",
      "outputs": [],
      "stateMutability": "nonpayable",
      "type": "function"
    },
    {
      "inputs": [],
      "name": "renounceOwnership",
      "outputs": [],
      "stateMutability": "nonpayable",
      "type": "function"
    },
    {
      "inputs": [
        {
          "internalType": "address",
          "name": "_trustAccumulator",
          "type": "address"
        }
      ],
      "name": "setTrustAccumulator",
      "outputs": [],
      "stateMutability": "nonpayable",
      "type": "function"
    },
    {
      "inputs": [
        {
          "internalType": "uint256",
          "name": "_rate",
          "type": "uint256"
        }
      ],
      "name": "setTrustRate",
      "outputs": [],
      "stateMutability": "nonpayable",
      "type": "function"
    },
    {
      "inputs": [],
      "name": "symbol",
      "outputs": [
        {
          "internalType": "string",
          "name": "",
          "type": "string"
        }
      ],
      "stateMutability": "view",
      "type": "function"
    },
    {
      "inputs": [],
      "name": "totalBurnedForTrust",
      "outputs": [
        {
          "internalType": "uint256",
          "name": "",
          "type": "uint256"
        }
      ],
      "stateMutability": "view",
      "type": "function"
    },
    {
      "inputs": [],
      "name": "totalMinted",
      "outputs": [
        {
          "internalType": "uint256",
          "name": "",
          "type": "uint256"
        }
      ],
      "stateMutability": "view",
      "type": "function"
    },
    {
      "inputs": [],
      "name": "totalSupply",
      "outputs": [
        {
          "internalType": "uint256",
          "name": "",
          "type": "uint256"
        }
      ],
      "stateMutability": "view",
      "type": "function"
    },
    {
      "inputs": [
        {
          "internalType": "address",
          "name": "to",
          "type": "address"
        },
        {
          "internalType": "uint256",
          "name": "value",
          "type": "uint256"
        }
      ],
      "name": "transfer",
      "outputs": [
        {
          "internalType": "bool",
          "name": "",
          "type": "bool"
        }
      ],
      "stateMutability": "nonpayable",
      "type": "function"
    },
    {
      "inputs": [
        {
          "internalType": "address",
          "name": "from",
          "type": "address"
        },
        {
          "internalType": "address",
          "name": "to",
          "type": "address"
        },
        {
          "internalType": "uint256",
          "name": "value",
          "type": "uint256"
        }
      ],
      "name": "transferFrom",
      "outputs": [
        {
          "internalType": "bool",
          "name": "",
          "type": "bool"
        }
      ],
      "stateMutability": "nonpayable",
      "type": "function"
    },
    {
      "inputs": [
        {
          "internalType": "address",
          "name": "newOwner",
          "type": "address"
        }
      ],
      "name": "transferOwnership",
      "outputs": [],
      "stateMutability": "nonpayable",
      "type": "function"
    },
    {
      "inputs": [],
      "name": "trustAccumulator",
      "outputs": [
        {
          "internalType": "address",
          "name": "",
          "type": "address"
        }
      ],
      "stateMutability": "view",
      "type": "function"
    },
    {
      "inputs": [],
      "name": "trustRateBasisPoints",
      "outputs": [
        {
          "internalType": "uint256",
          "name": "",
          "type": "uint256"
        }
      ],
      "stateMutability": "view",
      "type": "function"
    }
  ],
  "bytecode": "0x608060405260646008553480156200001657600080fd5b50336040518060400160405280600d81526020016c526573657276652054616c6c7960981b8152506040518060400160405280600581526020016454414c4c5960d81b81525081600390816200006d9190620001b7565b5060046200007c8282620001b7565b5050506001600160a01b038116620000ae57604051631e4fbdf760e01b81526000600482015260240160405180910390fd5b620000b981620000c0565b5062000283565b600580546001600160a01b038381166001600160a01b0319831681179093556040519116919082907f8be0079c531659141344cd1fd0a4f28419497f9722a3daafe3b4186f6b6457e090600090a35050565b634e487b7160e01b600052604160045260246000fd5b600181811c908216806200013d57607f821691505b6020821081036200015e57634e487b7160e01b600052602260045260246000fd5b50919050565b601f821115620001b257600081815260208120601f850160051c810160208610156200018d5750805b601f850160051c820191505b81811015620001ae5782815560010162000199565b5050505b505050565b81516001600160401b03811115620001d357620001d362000112565b620001eb81620001e4845462000128565b8462000164565b602080601f8311600181146200022357600084156200020a5750858301515b600019600386901b1c1916600185901b178555620001ae565b600085815260208120601f198616915b82811015620002545788860151825594840194600190910190840162000233565b5085821015620002735787850151600019600388901b60f8161c191681555b5050505050600190811b01905550565b61108380620002936000396000f3fe608060405234801561001057600080fd5b50600436106101a95760003560e01c806370a08231116100f9578063a9059cbb11610097578063f143895011610071578063f1438950146103b3578063f27a1d1b146103c6578063f2fde38b146103cf578063f46eccc4146103e257600080fd5b8063a9059cbb14610354578063dd62ed3e14610367578063e33484e6146103a057600080fd5b80638da5cb5b116100d35780638da5cb5b1461031f57806395d89b4114610330578063983b2d5614610338578063a2309ff81461034b57600080fd5b806370a08231146102db578063715018a61461030457806379cc67901461030c57600080fd5b8063313ce5671161016657806346f62d061161014057806346f62d06146102715780634f3a2dcd1461029c5780635cd87746146102bf5780636ee1c21b146102c857600080fd5b8063313ce5671461023c57806340c10f191461024b57806342966c681461025e57600080fd5b806306fdde03146101ae578063095ea7b3146101cc57806318160ddd146101ef57806323b872dd1461020157806325e04fd1146102145780633092afd514610229575b600080fd5b6101b6610405565b6040516101c39190610e73565b60405180910390f35b6101df6101da366004610edd565b610497565b60405190151581526020016101c3565b6002545b6040519081526020016101c3565b6101df61020f366004610f07565b6104b1565b610227610222366004610f43565b6104d5565b005b610227610237366004610f43565b610527565b604051601281526020016101c3565b610227610259366004610edd565b610578565b61022761026c366004610f65565b6106cf565b600754610284906001600160a01b031681565b6040516001600160a01b0390911681526020016101c3565b6102a46106dc565b604080519384526020840192909252908201526060016101c3565b6101f360085481565b6102276102d6366004610f65565b6106fb565b6101f36102e9366004610f43565b6001600160a01b031660009081526020819052604090205490565b6102276108d7565b61022761031a366004610edd565b6108eb565b6005546001600160a01b0316610284565b6101b6610904565b610227610346366004610f43565b610913565b6101f360095481565b6101df610362366004610edd565b6109ae565b6101f3610375366004610f7e565b6001600160a01b03918216600090815260016020908152604080832093909416825291909152205490565b6102276103ae366004610f65565b6109bc565b6101f36103c1366004610f65565b610a41565b6101f3600a5481565b6102276103dd366004610f43565b610a5e565b6101df6103f0366004610f43565b60066020526000908152604090205460ff1681565b60606003805461041490610fb1565b80601f016020809104026020016040519081016040528092919081815260200182805461044090610fb1565b801561048d5780601f106104625761010080835404028352916020019161048d565b820191906000526020600020905b81548152906001019060200180831161047057829003601f168201915b5050505050905090565b6000336104a5818585610a99565b60019150505b92915050565b6000336104bf858285610aab565b6104ca858585610b2a565b506001949350505050565b6104dd610b89565b600780546001600160a01b0319166001600160a01b0383169081179091556040517f9dd8f7fbcc3c6cb33ee389a3c95054d792f1fb230c872debfef31c7f1568f94790600090a250565b61052f610b89565b6001600160a01b038116600081815260066020526040808220805460ff19169055517fe94479a9f7e1952cc78f2d6baab678adc1b772d936c6583def489e524cb666929190a250565b3360009081526006602052604090205460ff166105cb5760405162461bcd60e51b815260206004820152600c60248201526b2737ba10309036b4b73a32b960a11b60448201526064015b60405180910390fd5b6001600160a01b0382166106215760405162461bcd60e51b815260206004820152601b60248201527f43616e6e6f74206d696e7420746f207a65726f2061646472657373000000000060448201526064016105c2565b6000811161066b5760405162461bcd60e51b8152602060048201526017602482015276416d6f756e74206d75737420626520706f73697469766560481b60448201526064016105c2565b6106758282610bb6565b80600960008282546106879190611001565b90915550506040518181526001600160a01b038316907f3f63ec0f300660aabbb947b8fc0c1a41ca1299a142b43ec60bd9f91be8e2377e906020015b60405180910390a25050565b6106d93382610bec565b50565b60008060006106ea60025490565b600954600a54925092509250909192565b600081116107455760405162461bcd60e51b8152602060048201526017602482015276416d6f756e74206d75737420626520706f73697469766560481b60448201526064016105c2565b3360009081526020819052604090205481111561079b5760405162461bcd60e51b8152602060048201526014602482015273496e73756666696369656e742062616c616e636560601b60448201526064016105c2565b6007546001600160a01b03166107f35760405162461bcd60e51b815260206004820152601960248201527f547275737420616363756d756c61746f72206e6f74207365740000000000000060448201526064016105c2565b6107fd3382610bec565b80600a600082825461080f9190611001565b9091555050600854600090612710906108289084611014565b610832919061102b565b9050801561089f57600754604051633590d71960e11b8152336004820152602481018390526001600160a01b0390911690636b21ae3290604401600060405180830381600087803b15801561088657600080fd5b505af115801561089a573d6000803e3d6000fd5b505050505b604080518381526020810183905233917f0c808964f5dfbd702c2731c0804921d7fc6cdde71b22d39b19b0b8b39029552991016106c3565b6108df610b89565b6108e96000610c22565b565b6108f6823383610aab565b6109008282610bec565b5050565b60606004805461041490610fb1565b61091b610b89565b6001600160a01b0381166109625760405162461bcd60e51b815260206004820152600e60248201526d24b73b30b634b21036b4b73a32b960911b60448201526064016105c2565b6001600160a01b038116600081815260066020526040808220805460ff19166001179055517f6ae172837ea30b801fbfcdd4108aa1d5bf8ff775444fd70256b44e6bf3dfc3f69190a250565b6000336104a5818585610b2a565b6109c4610b89565b612710811115610a065760405162461bcd60e51b815260206004820152600d60248201526c0a4c2e8ca40e8dede40d0d2ced609b1b60448201526064016105c2565b60088190556040518181527f5dfc4b3a266486df296ebb79b8fb57a0490b479751cf4478ec37b6146853d1ef9060200160405180910390a150565b600061271060085483610a549190611014565b6104ab919061102b565b610a66610b89565b6001600160a01b038116610a9057604051631e4fbdf760e01b8152600060048201526024016105c2565b6106d981610c22565b610aa68383836001610c74565b505050565b6001600160a01b03838116600090815260016020908152604080832093861683529290522054600019811015610b245781811015610b1557604051637dc7a0d960e11b81526001600160a01b038416600482015260248101829052604481018390526064016105c2565b610b2484848484036000610c74565b50505050565b6001600160a01b038316610b5457604051634b637e8f60e11b8152600060048201526024016105c2565b6001600160a01b038216610b7e5760405163ec442f0560e01b8152600060048201526024016105c2565b610aa6838383610d49565b6005546001600160a01b031633146108e95760405163118cdaa760e01b81523360048201526024016105c2565b6001600160a01b038216610be05760405163ec442f0560e01b8152600060048201526024016105c2565b61090060008383610d49565b6001600160a01b038216610c1657604051634b637e8f60e11b8152600060048201526024016105c2565b61090082600083610d49565b600580546001600160a01b038381166001600160a01b0319831681179093556040519116919082907f8be0079c531659141344cd1fd0a4f28419497f9722a3daafe3b4186f6b6457e090600090a35050565b6001600160a01b038416610c9e5760405163e602df0560e01b8152600060048201526024016105c2565b6001600160a01b038316610cc857604051634a1406b160e11b8152600060048201526024016105c2565b6001600160a01b0380851660009081526001602090815260408083209387168352929052208290558015610b2457826001600160a01b0316846001600160a01b03167f8c5be1e5ebec7d5bd14f71427d1e84f3dd0314c0f7b2291e5b200ac8c7c3b92584604051610d3b91815260200190565b60405180910390a350505050565b6001600160a01b038316610d74578060026000828254610d699190611001565b90915550610de69050565b6001600160a01b03831660009081526020819052604090205481811015610dc75760405163391434e360e21b81526001600160a01b038516600482015260248101829052604481018390526064016105c2565b6001600160a01b03841660009081526020819052604090209082900390555b6001600160a01b038216610e0257600280548290039055610e21565b6001600160a01b03821660009081526020819052604090208054820190555b816001600160a01b0316836001600160a01b03167fddf252ad1be2c89b69c2b068fc378daa952ba7f163c4a11628f55a4df523b3ef83604051610e6691815260200190565b60405180910390a3505050565b600060208083528351808285015260005b81811015610ea057858101830151858201604001528201610e84565b506000604082860101526040601f19601f8301168501019250505092915050565b80356001600160a01b0381168114610ed857600080fd5b919050565b60008060408385031215610ef057600080fd5b610ef983610ec1565b946020939093013593505050565b600080600060608486031215610f1c57600080fd5b610f2584610ec1565b9250610f3360208501610ec1565b9150604084013590509250925092565b600060208284031215610f5557600080fd5b610f5e82610ec1565b9392505050565b600060208284031215610f7757600080fd5b5035919050565b60008060408385031215610f9157600080fd5b610f9a83610ec1565b9150610fa860208401610ec1565b90509250929050565b600181811c90821680610fc557607f821691505b602082108103610fe557634e487b7160e01b600052602260045260246000fd5b50919050565b634e487b7160e01b600052601160045260246000fd5b808201808211156104ab576104ab610feb565b80820281158282048414176104ab576104ab610feb565b60008261104857634e487b7160e01b600052601260045260246000fd5b50049056fea26469706673582212204ba2ef2c3fea03dfbe1e03601788084e8b4242e7323de1cc465b998288e93aa364736f6c63430008140033",
  "linkReferences": {},
  "deployedLinkReferences": {}
}