{
  "_format": "hh-sol-artifact-1",
  "contractName": "TallyVoucher",
  "sourceName": "contracts/TallyVoucher.sol",
  "abi": [
    {
      "inputs": [
        {
          "internalType": "address",
          "name": "_trustTokenAddress",
          "type": "address"
        },
        {
          "internalType": "address[3]",
          "name": "_trinityMembers",
          "type": "address[3]"
        }
      ],
      "stateMutability": "nonpayable",
      "type": "constructor"
    },
    {
      "inputs": [
        {
          "internalType": "address",
          "name": "owner",
          "type": "address"
        }
      ],
      "name": "OwnableInvalidOwner",
      "type": "error"
    },
    {
      "inputs": [
        {
          "internalType": "address",
          "name": "account",
          "type": "address"
        }
      ],
      "name": "OwnableUnauthorizedAccount",
      "type": "error"
    },
    {
      "anonymous": false,
      "inputs": [
        {
          "indexed": true,
          "internalType": "address",
          "name": "previousOwner",
          "type": "address"
        },
        {
          "indexed": true,
          "internalType": "address",
          "name": "newOwner",
          "type": "address"
        }
      ],
      "name": "OwnershipTransferred",
      "type": "event"
    },
    {
      "anonymous": false,
      "inputs": [
        {
          "indexed": true,
          "internalType": "uint256",
          "name": "index",
          "type": "uint256"
        },
        {
          "indexed": false,
          "internalType": "address",
          "name": "oldMember",
          "type": "address"
        },
        {
          "indexed": false,
          "internalType": "address",
          "name": "newMember",
          "type": "address"
        }
      ],
      "name": "TrinityMemberUpdated",
      "type": "event"
    },
    {
      "anonymous": false,
      "inputs": [
        {
          "indexed": true,
          "internalType": "address",
          "name": "from",
          "type": "address"
        },
        {
          "indexed": true,
          "internalType": "address",
          "name": "to",
          "type": "address"
        },
        {
          "indexed": false,
          "internalType": "uint256",
          "name": "amount",
          "type": "uint256"
        }
      ],
      "name": "Vouched",
      "type": "event"
    },
    {
      "inputs": [
        {
          "internalType": "address",
          "name": "",
          "type": "address"
        }
      ],
      "name": "hasVouched",
      "outputs": [
        {
          "internalType": "bool",
          "name": "",
          "type": "bool"
        }
      ],
      "stateMutability": "view",
      "type": "function"
    },
    {
      "inputs": [
        {
          "internalType": "address",
          "name": "_account",
          "type": "address"
        }
      ],
      "name": "isTrinityMember",
      "outputs": [
        {
          "internalType": "bool",
          "name": "",
          "type": "bool"
        }
      ],
      "stateMutability": "view",
      "type": "function"
    },
    {
      "inputs": [],
      "name": "owner",
      "outputs": [
        {
          "internalType": "address",
          "name": "",
          "type": "address"
        }
      ],
      "stateMutability": "view",
      "type": "function"
    },
    {
      "inputs": [],
      "name": "renounceOwnership",
      "outputs": [],
      "stateMutability": "nonpayable",
      "type": "function"
    },
    {
      "inputs": [
        {
          "internalType": "address",
          "name": "newOwner",
          "type": "address"
        }
      ],
      "name": "transferOwnership",
      "outputs": [],
      "stateMutability": "nonpayable",
      "type": "function"
    },
    {
      "inputs": [
        {
          "internalType": "uint256",
          "name": "",
          "type": "uint256"
        }
      ],
      "name": "trinityMembers",
      "outputs": [
        {
          "internalType": "address",
          "name": "",
          "type": "address"
        }
      ],
      "stateMutability": "view",
      "type": "function"
    },
    {
      "inputs": [],
      "name": "trustToken",
      "outputs": [
        {
          "internalType": "contract TrustToken",
          "name": "",
          "type": "address"
        }
      ],
      "stateMutability": "view",
      "type": "function"
    },
    {
      "inputs": [
        {
          "internalType": "uint256",
          "name": "index",
          "type": "uint256"
        },
        {
          "internalType": "address",
          "name": "newMember",
          "type": "address"
        }
      ],
      "name": "updateTrinityMember",
      "outputs": [],
      "stateMutability": "nonpayable",
      "type": "function"
    },
    {
      "inputs": [
        {
          "internalType": "address",
          "name": "to",
          "type": "address"
        }
      ],
      "name": "vouchFor",
      "outputs": [],
      "stateMutability": "nonpayable",
      "type": "function"
    }
  ],
  "bytecode": "0x608060405234801561001057600080fd5b5060405161090938038061090983398101604081905261002f9161017e565b338061005557604051631e4fbdf760e01b81526000600482015260240160405180910390fd5b61005e8161008f565b50600180546001600160a01b0319166001600160a01b03841617905561008760028260036100df565b505050610215565b600080546001600160a01b038381166001600160a01b0319831681178455604051919092169283917f8be0079c531659141344cd1fd0a4f28419497f9722a3daafe3b4186f6b6457e09190a35050565b8260038101928215610127579160200282015b8281111561012757825182546001600160a01b0319166001600160a01b039091161782556020909201916001909101906100f2565b50610133929150610137565b5090565b5b808211156101335760008155600101610138565b80516001600160a01b038116811461016357600080fd5b919050565b634e487b7160e01b600052604160045260246000fd5b6000806080838503121561019157600080fd5b61019a8361014c565b9150602084603f8501126101ad57600080fd5b604051606081016001600160401b03811182821017156101cf576101cf610168565b6040528060808601878111156101e457600080fd5b8387015b81811015610206576101f98161014c565b83529184019184016101e8565b50505080925050509250929050565b6106e5806102246000396000f3fe608060405234801561001057600080fd5b50600436106100935760003560e01c80638da5cb5b116100665780638da5cb5b14610108578063d13deb2f14610119578063d81c0ca61461012c578063ee4753421461013f578063f2fde38b1461016257600080fd5b806309d65371146100985780631c8741fe146100c057806322807d51146100eb578063715018a614610100575b600080fd5b6100ab6100a6366004610632565b610175565b60405190151581526020015b60405180910390f35b6100d36100ce366004610654565b6101c0565b6040516001600160a01b0390911681526020016100b7565b6100fe6100f936600461066d565b6101e0565b005b6100fe61031f565b6000546001600160a01b03166100d3565b6001546100d3906001600160a01b031681565b6100fe61013a366004610632565b610333565b6100ab61014d366004610632565b60056020526000908152604090205460ff1681565b6100fe610170366004610632565b61055b565b600060028101546001600160a01b03838116911614806101a257506003546001600160a01b038381169116145b806101ba57506004546001600160a01b038381169116145b92915050565b600281600381106101d057600080fd5b01546001600160a01b0316905081565b6101e8610599565b600382106102355760405162461bcd60e51b8152602060048201526015602482015274092dcecc2d8d2c840a8e4d2dcd2e8f240d2dcc8caf605b1b60448201526064015b60405180910390fd5b6001600160a01b03811661028b5760405162461bcd60e51b815260206004820152601760248201527f43616e6e6f7420736574207a65726f2061646472657373000000000000000000604482015260640161022c565b6000600283600381106102a0576102a0610699565b01546001600160a01b0316905081600284600381106102c1576102c1610699565b0180546001600160a01b0319166001600160a01b03928316179055604080518383168152918416602083015284917f6fc538c9cfcd88846575873aaf67ecfc599c5393dbc8338423bc666a72d00510910160405180910390a2505050565b610327610599565b61033160006105c6565b565b61033c33610175565b6103885760405162461bcd60e51b815260206004820181905260248201527f4f6e6c792061205472696e697479206d656d6265722063616e20766f7563682e604482015260640161022c565b3360009081526005602052604090205460ff16156103fb5760405162461bcd60e51b815260206004820152602a60248201527f596f75206861766520616c7265616479207573656420796f7572206f6e652d7460448201526934b6b2903b37bab1b41760b11b606482015260840161022c565b336001600160a01b038216036104535760405162461bcd60e51b815260206004820152601e60248201527f596f752063616e6e6f7420766f75636820666f7220796f757273656c662e0000604482015260640161022c565b3360009081526005602052604090819020805460ff191660019081179091555490516334ff261960e21b81526001600160a01b038381166004830152670de0b6b3a7640000602483015260606044830152601960648301527f566f7563686564206279205472696e697479206d656d6265720000000000000060848301529091169063d3fc98649060a401600060405180830381600087803b1580156104f857600080fd5b505af115801561050c573d6000803e3d6000fd5b5050604051670de0b6b3a764000081526001600160a01b03841692503391507f49517064a7e568cc243d6d42d1e1388d887dea9ef158bc6f15e34da4055bde839060200160405180910390a350565b610563610599565b6001600160a01b03811661058d57604051631e4fbdf760e01b81526000600482015260240161022c565b610596816105c6565b50565b6000546001600160a01b031633146103315760405163118cdaa760e01b815233600482015260240161022c565b600080546001600160a01b038381166001600160a01b0319831681178455604051919092169283917f8be0079c531659141344cd1fd0a4f28419497f9722a3daafe3b4186f6b6457e09190a35050565b80356001600160a01b038116811461062d57600080fd5b919050565b60006020828403121561064457600080fd5b61064d82610616565b9392505050565b60006020828403121561066657600080fd5b5035919050565b6000806040838503121561068057600080fd5b8235915061069060208401610616565b90509250929050565b634e487b7160e01b600052603260045260246000fdfea2646970667358221220fc5c21d18e82290a6b56eb97501c55d0ae1460872ecd8de1b577cede4abddfa064736f6c63430008140033",
  "linkReferences": {},
  "deployedLinkReferences": {}
}