{
  "_format": "hh-sol-artifact-1",
  "contractName": "TrustToken",
  "sourceName": "contracts/TrustToken.sol",
  "abi": [
    {
      "inputs": [
        {
          "internalType": "address",
          "name": "initialOwner",
          "type": "address"
        }
      ],
      "stateMutability": "nonpayable",
      "type": "constructor"
    },
    {
      "inputs": [
        {
          "internalType": "address",
          "name": "spender",
          "type": "address"
        },
        {
          "internalType": "uint256",
          "name": "allowance",
          "type": "uint256"
        },
        {
          "internalType": "uint256",
          "name": "needed",
          "type": "uint256"
        }
      ],
      "name": "ERC20InsufficientAllowance",
      "type": "error"
    },
    {
      "inputs": [
        {
          "internalType": "address",
          "name": "sender",
          "type": "address"
        },
        {
          "internalType": "uint256",
          "name": "balance",
          "type": "uint256"
        },
        {
          "internalType": "uint256",
          "name": "needed",
          "type": "uint256"
        }
      ],
      "name": "ERC20InsufficientBalance",
      "type": "error"
    },
    {
      "inputs": [
        {
          "internalType": "address",
          "name": "approver",
          "type": "address"
        }
      ],
      "name": "ERC20InvalidApprover",
      "type": "error"
    },
    {
      "inputs": [
        {
          "internalType": "address",
          "name": "receiver",
          "type": "address"
        }
      ],
      "name": "ERC20InvalidReceiver",
      "type": "error"
    },
    {
      "inputs": [
        {
          "internalType": "address",
          "name": "sender",
          "type": "address"
        }
      ],
      "name": "ERC20InvalidSender",
      "type": "error"
    },
    {
      "inputs": [
        {
          "internalType": "address",
          "name": "spender",
          "type": "address"
        }
      ],
      "name": "ERC20InvalidSpender",
      "type": "error"
    },
    {
      "inputs": [
        {
          "internalType": "address",
          "name": "owner",
          "type": "address"
        }
      ],
      "name": "OwnableInvalidOwner",
      "type": "error"
    },
    {
      "inputs": [
        {
          "internalType": "address",
          "name": "account",
          "type": "address"
        }
      ],
      "name": "OwnableUnauthorizedAccount",
      "type": "error"
    },
    {
      "anonymous": false,
      "inputs": [
        {
          "indexed": true,
          "internalType": "address",
          "name": "owner",
          "type": "address"
        },
        {
          "indexed": true,
          "internalType": "address",
          "name": "spender",
          "type": "address"
        },
        {
          "indexed": false,
          "internalType": "uint256",
          "name": "value",
          "type": "uint256"
        }
      ],
      "name": "Approval",
      "type": "event"
    },
    {
      "anonymous": false,
      "inputs": [
        {
          "indexed": true,
          "internalType": "address",
          "name": "minter",
          "type": "address"
        }
      ],
      "name": "MinterAdded",
      "type": "event"
    },
    {
      "anonymous": false,
      "inputs": [
        {
          "indexed": true,
          "internalType": "address",
          "name": "minter",
          "type": "address"
        }
      ],
      "name": "MinterRemoved",
      "type": "event"
    },
    {
      "anonymous": false,
      "inputs": [
        {
          "indexed": true,
          "internalType": "address",
          "name": "previousOwner",
          "type": "address"
        },
        {
          "indexed": true,
          "internalType": "address",
          "name": "newOwner",
          "type": "address"
        }
      ],
      "name": "OwnershipTransferred",
      "type": "event"
    },
    {
      "anonymous": false,
      "inputs": [
        {
          "indexed": true,
          "internalType": "address",
          "name": "from",
          "type": "address"
        },
        {
          "indexed": true,
          "internalType": "address",
          "name": "to",
          "type": "address"
        },
        {
          "indexed": false,
          "internalType": "uint256",
          "name": "value",
          "type": "uint256"
        }
      ],
      "name": "Transfer",
      "type": "event"
    },
    {
      "anonymous": false,
      "inputs": [
        {
          "indexed": true,
          "internalType": "address",
          "name": "recipient",
          "type": "address"
        },
        {
          "indexed": false,
          "internalType": "uint256",
          "name": "amount",
          "type": "uint256"
        },
        {
          "indexed": false,
          "internalType": "string",
          "name": "reason",
          "type": "string"
        }
      ],
      "name": "TrustEarned",
      "type": "event"
    },
    {
      "inputs": [],
      "name": "GENESIS_BONUS",
      "outputs": [
        {
          "internalType": "uint256",
          "name": "",
          "type": "uint256"
        }
      ],
      "stateMutability": "view",
      "type": "function"
    },
    {
      "inputs": [],
      "name": "INITIAL_ADOPTION_REWARD",
      "outputs": [
        {
          "internalType": "uint256",
          "name": "",
          "type": "uint256"
        }
      ],
      "stateMutability": "view",
      "type": "function"
    },
    {
      "inputs": [
        {
          "internalType": "address",
          "name": "minter",
          "type": "address"
        }
      ],
      "name": "addMinter",
      "outputs": [],
      "stateMutability": "nonpayable",
      "type": "function"
    },
    {
      "inputs": [
        {
          "internalType": "address",
          "name": "owner",
          "type": "address"
        },
        {
          "internalType": "address",
          "name": "spender",
          "type": "address"
        }
      ],
      "name": "allowance",
      "outputs": [
        {
          "internalType": "uint256",
          "name": "",
          "type": "uint256"
        }
      ],
      "stateMutability": "view",
      "type": "function"
    },
    {
      "inputs": [
        {
          "internalType": "address",
          "name": "spender",
          "type": "address"
        },
        {
          "internalType": "uint256",
          "name": "value",
          "type": "uint256"
        }
      ],
      "name": "approve",
      "outputs": [
        {
          "internalType": "bool",
          "name": "",
          "type": "bool"
        }
      ],
      "stateMutability": "nonpayable",
      "type": "function"
    },
    {
      "inputs": [
        {
          "internalType": "address",
          "name": "account",
          "type": "address"
        }
      ],
      "name": "balanceOf",
      "outputs": [
        {
          "internalType": "uint256",
          "name": "",
          "type": "uint256"
        }
      ],
      "stateMutability": "view",
      "type": "function"
    },
    {
      "inputs": [
        {
          "internalType": "uint256",
          "name": "amount",
          "type": "uint256"
        }
      ],
      "name": "burn",
      "outputs": [],
      "stateMutability": "nonpayable",
      "type": "function"
    },
    {
      "inputs": [
        {
          "internalType": "address",
          "name": "account",
          "type": "address"
        },
        {
          "internalType": "uint256",
          "name": "amount",
          "type": "uint256"
        }
      ],
      "name": "burnFrom",
      "outputs": [],
      "stateMutability": "nonpayable",
      "type": "function"
    },
    {
      "inputs": [],
      "name": "decimals",
      "outputs": [
        {
          "internalType": "uint8",
          "name": "",
          "type": "uint8"
        }
      ],
      "stateMutability": "view",
      "type": "function"
    },
    {
      "inputs": [
        {
          "internalType": "address",
          "name": "to",
          "type": "address"
        },
        {
          "internalType": "uint256",
          "name": "amount",
          "type": "uint256"
        },
        {
          "internalType": "string",
          "name": "reason",
          "type": "string"
        }
      ],
      "name": "mint",
      "outputs": [],
      "stateMutability": "nonpayable",
      "type": "function"
    },
    {
      "inputs": [
        {
          "internalType": "address",
          "name": "",
          "type": "address"
        }
      ],
      "name": "minters",
      "outputs": [
        {
          "internalType": "bool",
          "name": "",
          "type": "bool"
        }
      ],
      "stateMutability": "view",
      "type": "function"
    },
    {
      "inputs": [],
      "name": "name",
      "outputs": [
        {
          "internalType": "string",
          "name": "",
          "type": "string"
        }
      ],
      "stateMutability": "view",
      "type": "function"
    },
    {
      "inputs": [],
      "name": "owner",
      "outputs": [
        {
          "internalType": "address",
          "name": "",
          "type": "address"
        }
      ],
      "stateMutability": "view",
      "type": "function"
    },
    {
      "inputs": [
        {
          "internalType": "address",
          "name": "minter",
          "type": "address"
        }
      ],
      "name": "removeMinter",
      "outputs": [],
      "stateMutability": "nonpayable",
      "type": "function"
    },
    {
      "inputs": [],
      "name": "renounceOwnership",
      "outputs": [],
      "stateMutability": "nonpayable",
      "type": "function"
    },
    {
      "inputs": [],
      "name": "symbol",
      "outputs": [
        {
          "internalType": "string",
          "name": "",
          "type": "string"
        }
      ],
      "stateMutability": "view",
      "type": "function"
    },
    {
      "inputs": [],
      "name": "totalSupply",
      "outputs": [
        {
          "internalType": "uint256",
          "name": "",
          "type": "uint256"
        }
      ],
      "stateMutability": "view",
      "type": "function"
    },
    {
      "inputs": [
        {
          "internalType": "address",
          "name": "to",
          "type": "address"
        },
        {
          "internalType": "uint256",
          "name": "value",
          "type": "uint256"
        }
      ],
      "name": "transfer",
      "outputs": [
        {
          "internalType": "bool",
          "name": "",
          "type": "bool"
        }
      ],
      "stateMutability": "nonpayable",
      "type": "function"
    },
    {
      "inputs": [
        {
          "internalType": "address",
          "name": "from",
          "type": "address"
        },
        {
          "internalType": "address",
          "name": "to",
          "type": "address"
        },
        {
          "internalType": "uint256",
          "name": "value",
          "type": "uint256"
        }
      ],
      "name": "transferFrom",
      "outputs": [
        {
          "internalType": "bool",
          "name": "",
          "type": "bool"
        }
      ],
      "stateMutability": "nonpayable",
      "type": "function"
    },
    {
      "inputs": [
        {
          "internalType": "address",
          "name": "newOwner",
          "type": "address"
        }
      ],
      "name": "transferOwnership",
      "outputs": [],
      "stateMutability": "nonpayable",
      "type": "function"
    }
  ],
  "bytecode": "0x60806040523480156200001157600080fd5b5060405162000f8338038062000f83833981016040819052620000349162000155565b806040518060400160405280601181526020017010dbdb9d995c99d95b98d948151c9d5cdd607a1b8152506040518060400160405280600581526020016415149554d560da1b81525081600390816200008e91906200022c565b5060046200009d82826200022c565b5050506001600160a01b038116620000cf57604051631e4fbdf760e01b81526000600482015260240160405180910390fd5b620000da8162000103565b506001600160a01b03166000908152600660205260409020805460ff19166001179055620002f8565b600580546001600160a01b038381166001600160a01b0319831681179093556040519116919082907f8be0079c531659141344cd1fd0a4f28419497f9722a3daafe3b4186f6b6457e090600090a35050565b6000602082840312156200016857600080fd5b81516001600160a01b03811681146200018057600080fd5b9392505050565b634e487b7160e01b600052604160045260246000fd5b600181811c90821680620001b257607f821691505b602082108103620001d357634e487b7160e01b600052602260045260246000fd5b50919050565b601f8211156200022757600081815260208120601f850160051c81016020861015620002025750805b601f850160051c820191505b8181101562000223578281556001016200020e565b5050505b505050565b81516001600160401b0381111562000248576200024862000187565b62000260816200025984546200019d565b84620001d9565b602080601f8311600181146200029857600084156200027f5750858301515b600019600386901b1c1916600185901b17855562000223565b600085815260208120601f198616915b82811015620002c957888601518255948401946001909101908401620002a8565b5085821015620002e85787850151600019600388901b60f8161c191681555b5050505050600190811b01905550565b610c7b80620003086000396000f3fe608060405234801561001057600080fd5b506004361061012c5760003560e01c806379cc6790116100ad578063a9059cbb11610071578063a9059cbb14610268578063d3fc98641461027b578063dd62ed3e1461028e578063f2fde38b146102c7578063f46eccc4146102da57600080fd5b806379cc67901461020f5780638da5cb5b1461022257806395d89b411461023d57806396d20e7314610245578063983b2d561461025557600080fd5b80633092afd5116100f45780633092afd5146101a7578063313ce567146101bc57806342966c68146101cb57806370a08231146101de578063715018a61461020757600080fd5b806306fdde0314610131578063095ea7b31461014f57806318160ddd1461017257806321e6d5bc1461018457806323b872dd14610194575b600080fd5b6101396102fd565b60405161014691906109e5565b60405180910390f35b61016261015d366004610a1b565b61038f565b6040519015158152602001610146565b6002545b604051908152602001610146565b61017668056bc75e2d6310000081565b6101626101a2366004610a45565b6103a9565b6101ba6101b5366004610a81565b6103cd565b005b60405160128152602001610146565b6101ba6101d9366004610a9c565b61041e565b6101766101ec366004610a81565b6001600160a01b031660009081526020819052604090205490565b6101ba61042b565b6101ba61021d366004610a1b565b61043f565b6005546040516001600160a01b039091168152602001610146565b610139610458565b610176681b1ae4d6e2ef50000081565b6101ba610263366004610a81565b610467565b610162610276366004610a1b565b6104bb565b6101ba610289366004610acb565b6104c9565b61017661029c366004610b96565b6001600160a01b03918216600090815260016020908152604080832093909416825291909152205490565b6101ba6102d5366004610a81565b61058a565b6101626102e8366004610a81565b60066020526000908152604090205460ff1681565b60606003805461030c90610bc9565b80601f016020809104026020016040519081016040528092919081815260200182805461033890610bc9565b80156103855780601f1061035a57610100808354040283529160200191610385565b820191906000526020600020905b81548152906001019060200180831161036857829003601f168201915b5050505050905090565b60003361039d8185856105c5565b60019150505b92915050565b6000336103b78582856105d7565b6103c2858585610656565b506001949350505050565b6103d56106b5565b6001600160a01b038116600081815260066020526040808220805460ff19169055517fe94479a9f7e1952cc78f2d6baab678adc1b772d936c6583def489e524cb666929190a250565b61042833826106e2565b50565b6104336106b5565b61043d6000610718565b565b61044a8233836105d7565b61045482826106e2565b5050565b60606004805461030c90610bc9565b61046f6106b5565b6001600160a01b038116600081815260066020526040808220805460ff19166001179055517f6ae172837ea30b801fbfcdd4108aa1d5bf8ff775444fd70256b44e6bf3dfc3f69190a250565b60003361039d818585610656565b3360009081526006602052604090205460ff166105385760405162461bcd60e51b815260206004820152602260248201527f5472757374546f6b656e3a2063616c6c6572206973206e6f742061206d696e7460448201526132b960f11b60648201526084015b60405180910390fd5b610542838361076a565b826001600160a01b03167ffca131e6f103301de8c257b22b27b307d999819be1943011b090c7fc423465ae838360405161057d929190610c03565b60405180910390a2505050565b6105926106b5565b6001600160a01b0381166105bc57604051631e4fbdf760e01b81526000600482015260240161052f565b61042881610718565b6105d283838360016107a0565b505050565b6001600160a01b03838116600090815260016020908152604080832093861683529290522054600019811015610650578181101561064157604051637dc7a0d960e11b81526001600160a01b0384166004820152602481018290526044810183905260640161052f565b610650848484840360006107a0565b50505050565b6001600160a01b03831661068057604051634b637e8f60e11b81526000600482015260240161052f565b6001600160a01b0382166106aa5760405163ec442f0560e01b81526000600482015260240161052f565b6105d2838383610875565b6005546001600160a01b0316331461043d5760405163118cdaa760e01b815233600482015260240161052f565b6001600160a01b03821661070c57604051634b637e8f60e11b81526000600482015260240161052f565b61045482600083610875565b600580546001600160a01b038381166001600160a01b0319831681179093556040519116919082907f8be0079c531659141344cd1fd0a4f28419497f9722a3daafe3b4186f6b6457e090600090a35050565b6001600160a01b0382166107945760405163ec442f0560e01b81526000600482015260240161052f565b61045460008383610875565b6001600160a01b0384166107ca5760405163e602df0560e01b81526000600482015260240161052f565b6001600160a01b0383166107f457604051634a1406b160e11b81526000600482015260240161052f565b6001600160a01b038085166000908152600160209081526040808320938716835292905220829055801561065057826001600160a01b0316846001600160a01b03167f8c5be1e5ebec7d5bd14f71427d1e84f3dd0314c0f7b2291e5b200ac8c7c3b9258460405161086791815260200190565b60405180910390a350505050565b6001600160a01b0383166108a05780600260008282546108959190610c24565b909155506109129050565b6001600160a01b038316600090815260208190526040902054818110156108f35760405163391434e360e21b81526001600160a01b0385166004820152602481018290526044810183905260640161052f565b6001600160a01b03841660009081526020819052604090209082900390555b6001600160a01b03821661092e5760028054829003905561094d565b6001600160a01b03821660009081526020819052604090208054820190555b816001600160a01b0316836001600160a01b03167fddf252ad1be2c89b69c2b068fc378daa952ba7f163c4a11628f55a4df523b3ef8360405161099291815260200190565b60405180910390a3505050565b6000815180845260005b818110156109c5576020818501810151868301820152016109a9565b506000602082860101526020601f19601f83011685010191505092915050565b6020815260006109f8602083018461099f565b9392505050565b80356001600160a01b0381168114610a1657600080fd5b919050565b60008060408385031215610a2e57600080fd5b610a37836109ff565b946020939093013593505050565b600080600060608486031215610a5a57600080fd5b610a63846109ff565b9250610a71602085016109ff565b9150604084013590509250925092565b600060208284031215610a9357600080fd5b6109f8826109ff565b600060208284031215610aae57600080fd5b5035919050565b634e487b7160e01b600052604160045260246000fd5b600080600060608486031215610ae057600080fd5b610ae9846109ff565b925060208401359150604084013567ffffffffffffffff80821115610b0d57600080fd5b818601915086601f830112610b2157600080fd5b813581811115610b3357610b33610ab5565b604051601f8201601f19908116603f01168101908382118183101715610b5b57610b5b610ab5565b81604052828152896020848701011115610b7457600080fd5b8260208601602083013760006020848301015280955050505050509250925092565b60008060408385031215610ba957600080fd5b610bb2836109ff565b9150610bc0602084016109ff565b90509250929050565b600181811c90821680610bdd57607f821691505b602082108103610bfd57634e487b7160e01b600052602260045260246000fd5b50919050565b828152604060208201526000610c1c604083018461099f565b949350505050565b808201808211156103a357634e487b7160e01b600052601160045260246000fdfea2646970667358221220205beac61bda27a02209ad100226f20664f6676d705c2499990f6cb68288362d64736f6c63430008140033",
  "linkReferences": {},
  "deployedLinkReferences": {}
}